:020000040800F2
:1000000040060020A1010008C9140008C11400081E
:10001000C5140008D50600081D35000800000000C2
:100020000000000000000000000000002D18000883
:10003000291100080000000045150008B90100085A
:100040002D350008BB010008BB010008BB010008FA
:10005000BB010008BB010008BB010008BB01000890
:10006000B51100080512000855120008BB01000870
:10007000BB010008BB010008BB010008BB01000870
:10008000BB010008BB010008BB010008BB01000860
:10009000D9060008BB010008BB010008AD1200082A
:1000A000BB010008BB010008BB010008BB01000840
:1000B000FD190008BB010008251A0008BB01000853
:1000C000BB010008BB010008BB010008BB01000820
:1000D000BB010008BB010008BB010008BB01000810
:1000E0002D110008BB010008BB010008BB0100087E
:1000F000BB010008BB010008BB010008BB010008F0
:10010000BB010008BB010008BB010008BB010008DF
:10011000BB010008BB010008BB010008451A00082C
:10012000BB010008BB010008BB010008BB010008BF
:10013000BB010008BB010008BB010008BB010008AF
:10014000BB0100085D090008BB010008BB010008F5
:10015000750F0008BB010008BB010008BB010008C7
:10016000BB010008BB010008BB010008BB0100087F
:10017000BB010008BB010008BB0100080000000033
:10018000BB010008BB010008DFF810D000F080FAC6
:100190000048004769350008AFF3008040060020A2
:1001A0000648804706480047FEE7FEE7FEE7FEE711
:1001B000FEE7FEE7FEE7FEE7FEE7FEE79919000827
:1001C000890100082DE9FE4F804681EA0300C00F37
:1001D0000C46009021F0004123F00045B8EB0200EE
:1001E000A94105D24046214690461C460B46024690
:1001F00023F00040104347D0270DC7F30A00C3F394
:100200000A510290401A019040286BDAC3F31300A0
:1002100040F4801B0098924620B10023D2EB030AE1
:1002200063EB0B0B01985946C0F14002504600F0B9
:100230007AF906460D4650465946019A00F082F971
:1002400010EB08006141002487EA115284EAE77349
:100250001A4340D0009A62B3019A012A4FEA07522A
:1002600015DC001B61EB02014FF0004202EA07526D
:10027000CDE90042001C41F5801132462B4600F0CA
:10028000B9F903B0BDE8F08F40462146F9E7001BFD
:1002900061EB0201001C41F5801300185B4120183E
:1002A000A2F5001747EB030140EAD570B6196D417E
:1002B00011E06D084FEA360645EAC0754FEA07526D
:1002C000001B61EB0201001C41F5801149084FEA57
:1002D00030000019514132462B4603B0BDE8F04FC3
:1002E00000F079B90098012240000023D0EB02020F
:1002F00063EBE073009821464FEAE074B8EB00002E
:1003000061EB0401E9E783F000435BE781F0004122
:1003100058E72DE9FE4F81EA030404F0004421F080
:10032000004100944FF0000B23F0004350EA010419
:100330005ED052EA03045BD0C3F30A54C1F30A55FA
:100340002C44A4F2F3340194A0FB0254C1F3130132
:1003500041F48011C3F3130343F4801301FB0244FF
:1003600000FB034E840A970A44EA815447EA835704
:10037000A4FB076802958D0A05FB07854FEA932CBD
:1003800004FB0C542705029D4FEA065847EA16372E
:10039000B5EB08056EEB070C870E920E47EA811746
:1003A00042EA8312A7FB0201B6EB0B0164EB0004E7
:1003B0002B0D43EA0C335E1844EB1C50DA465146D1
:1003C000E7FB0201C5F313044FEA0B3343EA14536E
:1003D0004FEA0432019C43EA0603A4F10C040294A0
:1003E000009CCDE900B400F005F903B0BDE8F08F42
:1003F00000200146F9E72DE9F04D81EA030404F0FD
:10040000004B21F0004514464FF0000A23F0004154
:1004100050EA050220D054EA01021DD0C5F30A5764
:100420000246C5F31303C1F31300C1F30A5640F4A7
:10043000801543F48013A7EB0608101BD64608F27C
:10044000FD3873EB050002D308F1010801E09218B2
:100450005B41B8F1000F03DA00200146BDE8F08DE2
:1004600000204FF48011064684460EE0171B73EB04
:10047000050705D3121B63EB050306434CEA010C89
:1004800049084FEA300092185B4150EA0107EDD16C
:1004900052EA030012D082EA040083EA050108430D
:1004A00005D0101BAB4106D20122002306E000223A
:1004B0004FF0004302E06FF0010253101AEB060008
:1004C0004CEB085110EB0A0041EB0B01BDE8F04D7D
:1004D00000F081B80EB540F2334102910021CDE920
:1004E00000110A460B4600F085F803B000BD01F08C
:1004F000004330B421F0004150EA010206D00A0D59
:10050000A2F56072C1F31301002A02DC30BC0020A6
:100510007047440F44EAC104C100E01830BC00EB4E
:10052000C25000F021B8202A04DB203A00FA02F180
:10053000002070479140C2F1200320FA03F31943D1
:1005400090407047202A06DBCB17203A41FA02F090
:1005500043EAE07306E041FA02F3D040C2F1200220
:1005600091400843194670470029A8BF7047401CB6
:10057000490008BF20F00100704710B4B0FA80FCB9
:1005800000FA0CF050EA010404BF10BC704749B1F6
:10059000CCF1200421FA04F411FA0CF118BF012166
:1005A00021430843A3EB0C01CB1D4FEA00614FEA46
:1005B000102042BF002010BC704700EBC350104415
:1005C0000029A4BF10BC7047401C490008BF20F0A0
:1005D000010010BC704710B5141E73F1000408DA56
:1005E000401C41F1000192185B411A4301D120F0F7
:1005F000010010BD2DE9F04D92469B4611B1B1FAB4
:1006000081F202E0B0FA80F220329046FFF78BFFD1
:1006100004460F4640EA0A0041EA0B0153465A4697
:10062000084313D0114653EA010019D0C8F1400223
:10063000504600F03FF805460E46504659464246A1
:10064000FFF771FF084305D0012004E0204639463A
:10065000BDE8F08D0020054346EAE0762C433743A1
:100660000A986305E40AA0EB08000022FD0A44EAA8
:1006700047540A3002D500200146E9E70105101968
:100680006941DDE9084500196941BDE8F04DA2E77F
:10069000064C074D06E0E06840F0010394E80700CF
:1006A00098471034AC42F6D3FFF772FDF4350008DA
:1006B00014360008202A04DB203A21FA02F0002137
:1006C000704721FA02F3D040C2F120029140084362
:1006D0001946704700BFFEE710B5984A00219848B8
:1006E00000F0ECFA0021964800F0D9FA022803DB6A
:1006F0000021934800F0B0F99048006891490968DA
:1007000088427DD18D48007A0028FAD18B48807AC2
:100710000828F6D189480B3002F008FD8749897C0A
:100720008842EED18548C07A432812D18348007BA5
:1007300041280ED18148407B4E280AD17F48807BDA
:100740004F2806D17D48C07B502802D101207E4928
:1007500048727A48C07A4F280FD17848007B5028D9
:100760000BD17648407B522807D1784973480E3028
:1007700002F096FD0120744988727048C07A4F28B3
:100780000FD16E48007B50280BD16C48407B4C2821
:1007900007D16E4969480E3002F082FD01206A4996
:1007A000C8726648C07A4F280FD16448007B4C2835
:1007B0000BD16248407B502807D165495F480E3015
:1007C00002F06EFD0120604988735C48C07A4328BE
:1007D00012D15A48007B41280ED15848407B4E2800
:1007E0000AD15648807B4F2806D15448C07B5328F5
:1007F00002D10120544988705048C07A4F2800E047
:100800009BE00FD14D48007B4D280BD14B48407BDE
:10081000522807D14F4949480E3002F041FD0120CE
:100820004949C8704548C07A4F280FD14348007BDA
:100830004D280BD14148407B4C2807D145493F48C2
:100840000E3002F02DFD01203F4908713B48C07A6F
:100850004F280FD13948007B4C280BD13748407BBB
:100860004D2807D13C4935480E3002F019FD0120D2
:100870003549C8713148C07A4F280AD12F48007BCA
:10088000532806D12D48407B4D2802D101202E4906
:1008900008722A48C07A43280ED12848007B412894
:1008A0000AD12648407B4E2806D12448807B4F2819
:1008B00002D101202449C8732048C07A43280ED1B0
:1008C0001E48007B41280AD11C48407B4E2806D197
:1008D0001A48807B432802D100201B49C87317485F
:1008E000C07A45281AD11548007B4E2816D11348E6
:1008F000407B442812D11148807B41280ED10F48FB
:10090000C07B52280AD10D48007C4D2806D10B48E7
:10091000407C322802D101200B4908740748C07A74
:1009200045280AD10548007B4A2806D10348407B68
:10093000532802D101200449487410BD1802002038
:10094000006400402C000020000200201C00002059
:1009500024000020200000202800002010B5294A93
:100960000121294800F0AAF90121274800F097F950
:10097000022803DB0121244800F06EF821480068BA
:100980002249096888423CD11E48007AC8BB1D48EC
:10099000807A082835D11B480B3002F04DF81949F0
:1009A000897C88422DD11748C07A502812D1154829
:1009B000007B4D280ED11348407B41280AD11449B1
:1009C00010480E3002F016F9114890ED000A114857
:1009D00080ED000A0B48C07A502812D10948007BEC
:1009E00050280ED10748407B49280AD10A490548BA
:1009F0000E3002F0FFF8084890ED000A074880ED3D
:100A0000000A10BD2C020020006800406000002099
:100A1000A0000020540000209C000020580000206E
:100A200010B504460B48844209D10121480600F064
:100A3000ABFD00214FF0007000F0A6FD08E00121A1
:100A4000880600F0A1FD00214FF0806000F09CFDC1
:100A500010BD00000064004021B9C26842F02002CD
:100A6000C26003E0026942F02002026170470000A8
:100A700010B50021837A012202FA03F13D4A12687F
:100A800042F001023B4B1A603A4A1C3212688A4318
:100A9000384B1C331A60027BCAB9364A0C321268D2
:100AA0008A43344B0C331A604288C38842EA0343BA
:100AB000304A4032847A42F834300288838842EAED
:100AC00003432C4A4032847A02EBC4025360027B17
:100AD000012A19D1274A0C3212680A43254B0C33DC
:100AE0001A604288038842EA0343224A4032847AE9
:100AF00042F83430C288838842EA03431D4A4032B8
:100B0000847A02EBC4025360C27A3AB9194A121DC0
:100B100012688A43174B1B1D1A6006E0154A121D06
:100B200012680A43134B1B1D1A60028932B9114A1D
:100B3000143212688A430F4B14331A600289012A57
:100B400006D10C4A143212680A430A4B14331A6055
:100B5000427B012A06D1074A1C3212680A43054B20
:100B60001C331A60034A126822F00102014B1A601A
:100B700010BD0000006600401AB143690B43436199
:100B800002E043698B434361704730B50246002061
:100B90000023146824F002041460146844F0010473
:100BA000146000E05B1C546804F001041CB94FF6AB
:100BB000FF74A342F6D1546804F001040CB900207C
:100BC0006CE08C79012C04D1146844F0800414602A
:100BD00003E0146824F080041460CC79012C04D163
:100BE000146844F04004146003E0146824F04004E6
:100BF00014600C7A012C04D1146844F020041460B1
:100C000003E0146824F0200414604C7A012C04D111
:100C1000146844F01004146003E0146824F0100415
:100C200014608C7A012C04D1146844F00804146018
:100C300003E0146824F008041460CC7A012C04D179
:100C4000146844F00404146003E0146824F00404FD
:100C500014608C78A407CD7844EA05640D7944EAE1
:100C600005444D7944EA05540D886D1E2C43D4612A
:100C7000146824F001041460002300E05B1C546835
:100C800004F001041CB14FF6FF74A342F6D154687E
:100C900004F001040CB1002000E0012030BD024648
:100CA000002019B9D36803F0030006E0012903D13D
:100CB000136903F0030000E00020704710B500F551
:100CC000D87303EB01131B6803F004031372137A48
:100CD00053B900F5D87303EB01131B6840F2FF749E
:100CE00004EA5353136009E000F5D87303EB0113D2
:100CF0001B686FF0604404EAD303536000F5D873B7
:100D000003EB01131B6803F00203537200F5D87361
:100D100003EB01135B6803F00F03937200F5D873C4
:100D200003EB01135B681B0AD37400F5D87303EB64
:100D300001139B68D37200F5D87303EB01139B6812
:100D40001C0A147300F5D87303EB01139B681C0C89
:100D5000547300F5D87303EB01139B681B0E937358
:100D600000F5D87303EB0113DB68D37300F5D87378
:100D700003EB0113DB681C0A147400F5D87303EB52
:100D80000113DB681C0C547400F5D87303EB0113DA
:100D9000DB681B0E937421B9C36843F02003C36062
:100DA00003E0036943F02003036110BD10B5024660
:100DB0000020936803F08063B3F1806F00D110E0EE
:100DC000936803F00063B3F1006F01D1012008E0E4
:100DD000936803F08053B3F1805F01D1022000E0FB
:100DE0000420042874D002F5C07303EB00131B68C1
:100DF00003F0010402F5C07303EB00131C600B7ACF
:100E00007BB94B7A0C8843EA445302F5C07404EB77
:100E100000142468234302F5C07404EB001423601B
:100E200010E00B7A4C6843EAC4034C7A234302F582
:100E3000C07404EB00142468234302F5C07404EB6F
:100E4000001423608B7A03F00F038B7202F5C073DA
:100E500003EB00135B6823F00F0402F5C07303EB90
:100E600000135C6002F5C07303EB00135B688C7ABF
:100E7000234302F5C07404EB001463608B7B1C06F3
:100E80004B7B44EA03440B7B44EA0323CC7A2343A1
:100E900002F5C07404EB0014A3608B7C1C064B7C31
:100EA00044EA03440B7C44EA0323CC7B234302F54E
:100EB000C07404EB0014E36002F5C07303EB00138D
:100EC0001B6843F0010402F5C07303EB00131C60C0
:100ED00010BD000010B50246002321B1012907D042
:100EE00002290FD109E090681D4C00EA04030BE0D1
:100EF00090681C4C00EA040306E090681A4C00EA73
:100F0000040301E0002300BF00BF184C181BA342DC
:100F100016D007DC83B16FF08060184470B10228EE
:100F200018D111E0B0F5007F10D0114C204448B129
:100F3000B0F5003F0ED10BE002230DE000230BE0E3
:100F4000002309E0002307E0012305E0012303E07B
:100F5000012301E0002300BF00BFD8B210BD000094
:100F60000300000400030008000003100001000853
:100F70000001FFF770B51349134800F059F800B3AA
:100F80001249134800F038FE104800F053FE0446A2
:100F90000E4991F8230000F00FFF05460B4991F828
:100FA000220000F009FF05EB0010844205D1094B37
:100FB000094A0A49054800F01DFF0949024800F0A6
:100FC00011F870BD0088002088640240DA0100201A
:100FD000B4010020080000200400002000000020D0
:100FE00040FF00A00246094B9A4201D2084801E0A6
:100FF0000648103801F000531BB1064B0B40C3608C
:1010000002E0044B0B408360704700001064024014
:10101000006002407D0F7D0F21B1026842F00102A5
:10102000026003E0026822F00102026070470000E3
:1010300070B50246002000240025124EB24201D2B3
:10104000114B01E00F4B103B104E0E4036B11E26E7
:1010500006EAD124166806EA040502E0566906F09D
:10106000800501F000560EB15C6800E01C68084E77
:10107000344004EA010616B10DB1012000E0002061
:1010800070BD000010640240006002403C0F3C0F45
:101090007D0F7D0F10B501F080034BB122B1436984
:1010A00043F08003436103E0436923F0800343611D
:1010B00080290BD02AB1036801F01E04234303608A
:1010C00004E0036801F01E04A343036010BD0000A8
:1010D00010B500220268134B1A40CC680B682343FA
:1010E0004C6923438C692343CC6923430C6A234313
:1010F0004C6A23438C6A23434C6B23438C6B2343FE
:101100001A430260426922F00702D1E90B342343FB
:101110001A4342610B6943604B6883608B68C3600C
:1011200010BD00003F801CF07047000010B54FF468
:10113000006000F0EDF828B1012019490870C002E4
:1011400000F0E0F84FF4805000F0E2F828B1012000
:1011500014490870000300F0D5F84FF4005000F077
:10116000D7F828B1012010490870400300F0CAF8F0
:101170004FF4804000F0CCF828B101200B490870F2
:10118000800300F0BFF84FF4004000F0C1F828B130
:10119000012007490870C00300F0B4F810BD00003A
:1011A0000C0000200D0000200E0000200F00002089
:1011B0001000002010B5042000F0AAF8D0B10F48AC
:1011C0004078B8B14C209FED0E0A01F0D5FD002407
:1011D00009E0012001F020F95220B3EE0E0A01F0DF
:1011E000CBFD601CC4B2032CF3DB012003498874DF
:1011F00001F006FC042000F085F810BD000200207C
:101200000000000010B5082000F082F8D0B10F48AF
:101210004078B8B152209FED0E0A01F0ADFD0024D8
:1012200009E0012001F0F8F84C20B3EE0E0A01F0BD
:10123000A3FD601CC4B2032CF3DB01200349C87476
:1012400001F0DEFB082000F05DF810BD0002002078
:101250000000000010B5102000F05AF8D8B1104876
:101260004078C0B14C209FED0F0A01F041FD0024F1
:101270000AE0012001F0D0F852200B4991ED000A5C
:1012800001F036FD601CC4B2032CF2DB01200449DE
:10129000087501F0B5FB102000F034F810BD000017
:1012A00000020020000000009000002010B5202067
:1012B00000F02EF8D8B110484078C0B152209FED10
:1012C0000F0A01F015FD00240AE0012001F0A4F846
:1012D0004C200B4991ED000A01F00AFD601CC4B2DC
:1012E000032CF2DB01200449487501F089FB202022
:1012F00000F008F810BD000000020020000000000F
:10130000900000200149086070470000143C014033
:1013100001460020034A12680A400AB1012000E099
:1013200000207047143C0140002123498279002AA3
:101330003AD00A46126803689A430B461A600A1D9F
:10134000126803689A430B1D1A60027911440A68F7
:1013500003681A430A60184A0832126803689A43FD
:10136000154B08331A601A1D126803689A43124B12
:101370000C331A604279102A0ED11A1F12680368C2
:101380001A430D4B08331A601A1D126803681A437A
:10139000094B0C331A600DE00749427911440A6881
:1013A00003681A430A6005E0027911440A68036879
:1013B0009A430A6070470000003C0140014A1070E7
:1013C00070470000003C0240F0B50A4600210023AF
:1013D000002400BF3DE0012505FA01F3156805EA88
:1013E00003049C4234D105684F000326BE40B54338
:1013F000056015794E00B5400668354305601579DE
:10140000012D02D01579022D16D185684F000326D3
:10141000BE40B543856055794E00B540866835437A
:101420008560456801268E40B543456045689679DC
:101430008E40B6B235434560C5684F000326BE40B6
:10144000B543C560D5794E00B540C6683543C56023
:10145000491C1029BFD3F0BDF0B5002300244D076F
:10146000ED0E02FA05F3CE1000F1200555F82650D6
:101470004E07F70E0F26BE40B543CF1000F12006F1
:1014800046F82750CE1000F1200555F8265045EAC1
:101490000304CE1000F1200545F82640F0BD0246B9
:1014A000002013690B400BB1012000E000207047C1
:1014B000418370470183704742694A4042617047E7
:1014C00000BFFEE700BFFEE77047000070B50021D7
:1014D00000230F22C4781CB3174C246804F4E06482
:1014E000C4F5E064C4F30721C1F10404E3B20A4186
:1014F00044789C40E1B28478144021430C07210ECB
:101500000E4C05786155047804F01F050124AC40A9
:1015100005786D11AD0005F1E025C5F8004109E041
:10152000047804F01F050124AC40054D06787611BF
:1015300045F8264070BD00000CED00E000E400E03E
:1015400080E100E07047000029B1064A12680243BA
:10155000044B1A6004E0034A12688243014B1A608C
:10156000704700003038024029B1064A1268024331
:10157000044B1A6004E0034A12688243014B1A606C
:10158000704700004038024029B1064A1268024301
:10159000044B1A6004E0034A12688243014B1A604C
:1015A000704700002038024029B1064A1268024301
:1015B000044B1A6004E0034A12688243014B1A602C
:1015C00070470000443802401448006840F00100B1
:1015D0001249086000201149083108600F4800686E
:1015E0000F4908400D4908600E48091D08600E4863
:1015F0000A49843108600B481038091D0860074803
:10160000006820F4802005490860002003490C315F
:10161000086002498C3108607047000000380240C1
:10162000FFFFF6EA1030002400300020F0B5002162
:1016300000220024022500260223324F3F6807F0D3
:101640000C0121B1042905D0082937D105E02E4F1E
:10165000076036E02D4F076033E02A4F3F1F3F6899
:10166000C7F38056274F3F1F3F6807F03F036EB117
:10167000264FB7FBF3F7DFF88CC0ACF1040CDCF8B5
:1016800000C0CCF3881C07FB0CF40CE01E4FB7FB2A
:10169000F3F7DFF870C0ACF1040CDCF800C0CCF359
:1016A000881C07FB0CF4174F3F1F3F68C7F3014727
:1016B0007F1C7D00B4FBF5F7076002E0124F076066
:1016C00000BF00BF0F4F3F6807F0F0010909104F3E
:1016D0007A5C0768D74047600A4F3F6807F4E051DB
:1016E000890A0B4F7A5C4768D7408760054F3F688F
:1016F00007F46041490B064F7A5C4768D740C760E2
:10170000F0BD0000083802400024F40000127A0006
:10171000E800002010B501460022002300204A11F5
:10172000012A02D10A4C236808E0022A03D1084C9E
:101730007034236802E0064C7434236801F01F0201
:10174000012494401C400CB1012000E0002010BD99
:101750000038024001460020034A106820F0F000E3
:101760000843106070470000083802400021024A18
:10177000117011460870704702380240014600207F
:10178000034A106820F4E0500843106070470000DE
:101790000838024001460020034A106820F46040E7
:1017A00040EAC100106070470838024001490866ED
:1017B000704700000000474270B5049C41EA821562
:1017C0000126C6EB530645EA0645054345EA04658E
:1017D000014E356070BD0000043802400146002013
:1017E000034A106820F003000843106070470000AF
:1017F0000838024038B5002000900024002500BFC2
:101800003120FFF787FF05460098401C00900098A4
:10181000B0F5A04F01D0002DF2D03120FFF77AFFB4
:1018200008B1012400E00024204638BD70470000C4
:1018300030B500228B071C0F0F2303FA04F20B4B69
:101840008C1053F824309343084C8D1044F8253005
:1018500023468C1053F824308C07240F00FA04F42C
:101860002343024C8D1044F8253030BD0838014028
:1018700038B5FFF7A9FE0120FFF778FFFFF7BAFFA1
:101880000446012C23D1072002234FF4A87208211B
:101890000090C804FFF790FF0120FFF787FF00BF0B
:1018A0003920FFF737FF0028FAD00520FFF786FD23
:1018B0000020FFF74FFF4FF4A050FFF75FFF4FF4FA
:1018C0008050FFF767FF0220FFF788FF01E000BFAD
:1018D000FEE700F001F838BD70B5002000220223B9
:1018E00000240221274D2D6805F00C0020B10428AA
:1018F00006D0082834D107E0234D244E356033E06C
:10190000234D224E35602FE01E4D2D1F2D68C5F34F
:1019100080541C4D2D1F2D6805F03F0154B11C4D06
:10192000B5FBF1F5174E361F3668C6F3881605FB72
:1019300006F209E0144DB5FBF1F5124E361F36687C
:10194000C6F3881605FB06F20E4D2D1F2D68C5F354
:1019500001456D1C6B00B2FBF3F50C4E356003E0E6
:10196000094D0A4E356000BF00BF064D2D68C5F316
:101970000315084E705D054D2D68C540034E35605A
:1019800070BD0000083802400024F400F800002078
:1019900000127A00DC3500081448006840F470003A
:1019A000124908601248006840F0010010490860C0
:1019B00000200F49083108600D4800680D490840B3
:1019C0000B4908600C48091D0860081F006820F4D6
:1019D0008020091F0860002005490C3108604FF085
:1019E00000600249803908607047000088ED00E01F
:1019F00000380240FFFFF6FE1030002410B5012130
:101A0000880700F099F8012809D10121800700F02A
:101A100078F84FF0804000F083F80149086010BD6D
:101A2000C400002010B50121054800F085F808B178
:101A300001F0C6F90121024800F063F810BD000072
:101A40000008004010B50121214800F075F8012878
:101A50003CD101211E4800F054F81E4890ED000AC8
:101A6000DFED1D0A20EE200AF1EE000A20EE200A2A
:101A7000DFED1A0A80EE201A9FED190A31EE000AF6
:101A8000184880ED000A4FF0804000F049F81649F0
:101A90000860164890ED002A1548D0ED001A154848
:101AA00090ED001A084690ED000AF8EEC00A0D48C5
:101AB00090ED000A00F058FBBCEEC00A10EE100AD0
:101AC0000D4908800846008800F03AFC10BD00006F
:101AD00000140040D800002000A039450000B443A5
:101AE0000060EA46AC000020C4000020E4000020B2
:101AF000E0000020DC000020A8000020CA43028291
:101B00007047CA430282704721B1028842F0010245
:101B1000028004E002884FF6FE731A40028070478C
:101B20000146486A704702460020138A0B400BB1F9
:101B3000012000E00020704730B50246002000235D
:101B40000024158A05EA0103958905EA010413B109
:101B50000CB1012000E0002030BD1AB183890B4395
:101B6000838102E083898B4383817047416370479F
:101B70004162704700220288184B98420ED0184BE1
:101B800098420BD0B0F1804F08D0164B984205D048
:101B9000154B984202D0154B984204D14FF68F73E3
:101BA0001A404B881A43124B984207D0114B984267
:101BB00004D04FF6FF431A400B891A4302804B684A
:101BC000C3620B880385054B984202D0044B9842B0
:101BD00001D18B7A03860123838270470000014084
:101BE000000401400004004000080040000C0040D8
:101BF000001000400014004010B5024600230020F1
:101C000004E0145C242C00D1C3B2401C2628F8DB6D
:101C100000200CE01C18262C03DA1C18145D0C5450
:101C200004E0C3F12604041B145D0C54401C262858
:101C3000F0DB10BD30B5014600230024002008E091
:101C40000D5C242D00D1C3B20D5C2A2D00D1C4B28D
:101C5000401C2628F4DB581C0A5C981C02E00D5C32
:101C60006A40401CA042FADB104630BD00B597B078
:101C700001210846FFF768FC02208DF8580000207B
:101C80008DF85A004FF40070159000208DF85B001D
:101C900003208DF8590015A94348FFF795FB012152
:101CA0000846FFF751FC02208DF8580000208DF8FF
:101CB0005A004FF48060159000208DF85B000320DF
:101CC0008DF8590015A93848FFF77EFB0722092136
:101CD0003548FFF7C1FB07220A213348FFF7BCFB59
:101CE00001211020FFF760FC4FF4E130119000203B
:101CF000ADF850000C20ADF84E000020ADF84C00BF
:101D0000ADF84A00ADF8480011A9284801F0A4F93F
:101D100001224021254801F095F901218805FFF7AE
:101D200013FC4FF000600290214804901F48001DF2
:101D300003900020059026200690002007904FF485
:101D400080600890002009900A904FF480700B90FA
:101D500040020C9000200D9001200E9000200F906A
:101D6000109002A91348FFF7B3F901211148FFF7BA
:101D700053F9012210210F48FFF78CF944208DF808
:101D8000040000208DF8050003208DF806000120D6
:101D90008DF8070001A8FFF799FB0121034801F026
:101DA00045F917B000BD00000000024000100140DE
:101DB000B40100208864024001460020A1F14102E4
:101DC000062A10D2DFE802F0030507090B0D0A20EE
:101DD0000DE00B200BE00C2009E00D2007E00E20A9
:101DE00005E00F2003E0A1F13002D0B200BF00BF38
:101DF00070470000F0B52DED108B8BB004460D46FA
:101E000016461F46E0793038C0B28DF82000207A9F
:101E10003038C0B28DF82100607A3038C0B28DF809
:101E20002200E07A3038C0B28DF82300207B3038B1
:101E3000C0B28DF824009DF82400FEF74BFB41EC66
:101E40001B0B9FEDA70B53EC102BFEF7D4FA41ECC4
:101E5000190B9DF82300FEF73DFB41EC1D0B9FED98
:101E6000A20B53EC102BFEF7C6FA41EC1B0B9DF8AE
:101E70002200FEF72FFB41EC1D0B9DF82100FEF721
:101E800029FB41EC1F0B9FED980B53EC102BFEF739
:101E900040FA41EC1E0B9DF82000FEF71BFB41ECC5
:101EA0001F0B9FED8F0B53EC102BFEF732FA53EC08
:101EB0001E2BCDE900019DED000B51EC100BFEF740
:101EC00081F953EC1D2BCDE902019DED020B51EC84
:101ED000100BFEF777F941EC1C0B53EC1B2BFEF7B4
:101EE00071F941EC1A0B53EC192BFEF76BF941EC2D
:101EF000180BFEF7FCFA2860207C3038C0B28DF851
:101F00001800607C3038C0B28DF81900A07C3038E1
:101F1000C0B28DF81A00207D3038C0B28DF81B0099
:101F2000607D3038C0B28DF81C009DF81C00FEF7B3
:101F3000D1FA41EC1A0B9FED6A0B53EC102BFEF714
:101F40005AFA41EC180B9DF81B00FEF7C3FA41EC5E
:101F50001C0B9FED650B53EC102BFEF74CFA41EC7C
:101F60001A0B9DF81A00FEF7B5FA41EC1C0B9DF810
:101F70001900FEF7AFFA41EC1F0B9FED5B0B53EC22
:101F8000102BFEF7C6F9CDE900019DF81800FEF709
:101F9000A1FA41EC1F0B9FED520B53EC102BFEF7F7
:101FA000B8F941EC1E0B9DED000B53EC102BFEF726
:101FB00009F941EC1D0B53EC1C2BFEF703F941EC26
:101FC0001B0B53EC1A2BFEF7FDF841EC190B53ECED
:101FD000182BFEF7F7F8CDE902019DED020B51EC4D
:101FE000100BFEF784FA3060607E3038C0B28DF896
:101FF0001000A07E3038C0B28DF81100E07E30387D
:10200000C0B28DF81200607F3038C0B28DF8130076
:10201000A07F3038C0B28DF814009DF81400FEF790
:1020200059FA41EC1A0B9FED2E0B53EC102BFEF7D7
:10203000E2F941EC180B9DF81300FEF74BFA41EC66
:102040001C0B9FED290B53EC102BFEF7D4F941EC40
:102050001A0B9DF81200FEF73DFACDE900019DF83C
:102060001100FEF737FA41EC1F0B9FED1F0B53ECED
:10207000102BFEF74EF941EC1D0B9DF81000FEF7FA
:1020800029FA41EC1F0B9FED160B53EC102BFEF7BA
:1020900040F941EC1E0B53EC1D2BFEF793F841EC7D
:1020A0001C0B9DED000B53EC102BFEF78BF841EC55
:1020B0001B0B53EC1A2BFEF785F841EC190B53EC74
:1020C000182BFEF77FF8CDE902019DED020B51ECD4
:1020D000100BFEF70CFA38600BB0BDEC108BF0BDA6
:1020E00000000000000059400000000000002440F3
:1020F00010B508210348FFF7DDF904210148FFF777
:10210000D7F910BD0000024010B504210348FFF7C5
:10211000D1F908210148FFF7CBF910BD00000240BA
:102120000E4890ED000ADFED0E0AB4EEE00AF1EE83
:1021300010FA03DB9FED0A0A80ED000A074890EDD4
:10214000000ADFED080AB4EEE00AF1EE10FA03D857
:102150009FED040A80ED000A70470000BC000020DB
:102160000000BE4200005C4210B52DED068BB0EEC3
:10217000408AF0EE608AB0EE419AF0EE619AB0EEDD
:1021800042AA38EE680A644880ED000AF3EE040AB9
:102190008AEE200ADFED610A80EE201A9FED600AC8
:1021A00029EE800AD0ED000A5E48D0ED001A70EEEC
:1021B000A10A20EE200A5848D0ED000A09EE200AB4
:1021C000D0ED000A5748D0ED001AB0EE002A42EEDA
:1021D000610A5548D0ED001A70EEA10A01EE200AFE
:1021E000524880ED000A4F4890ED000A4E4880EDBD
:1021F000000A494890ED000A4A4880ED000A9FED28
:102200004C0AB4EEC08AF1EE10FA43DD424890ED7C
:10221000000ADFED480AB4EEE00AF1EE10FA12DD32
:10222000FFF772FF414890ED000ADFED430A30EE00
:10223000200A80ED000AFFF773FF3C4890ED000A8A
:10224000BDEC068B10BD344890ED000ADFED3B0A73
:10225000B4EEE00AF1EE10FA10D2FFF749FF33486E
:1022600090ED000ADFED340A30EEC00A80ED000A7E
:10227000FFF756FF2D4890ED000AE1E700F07CF8EB
:1022800000F068F89FED2C0A284880ED000A90EDD8
:10229000000AD5E7204890ED000ADFED280AB4EEE9
:1022A000E00AF1EE10FA10D2FFF722FF1F4890ED7E
:1022B000000ADFED210A30EEC00A80ED000AFFF7C8
:1022C0002FFF1A4890ED000ABAE7134890ED000A74
:1022D000DFED180AB4EEE00AF1EE10FA10DDFFF7B8
:1022E00013FF124890ED000ADFED130A30EE200ACA
:1022F00080ED000AFFF714FF0C4890ED000A9FE7FD
:1023000000F03AF800F026F89FED0B0A074880ED40
:10231000000A90ED000A93E7B000002000007A4424
:1023200000000000B4000020B8000020BC00002025
:102330000060EA4600008C4200005C4200008CC253
:1023400010B5044621460248FFF710FC10BD0000FE
:102350000000014010B59FED060A064880ED000A16
:1023600047F230514FF08040FFF702FC10BD0000F3
:1023700000000000D800002010B504210348FFF73A
:1023800097F808210148FFF793F810BD00000240BC
:1023900010B501211020FFF7E7F80020024908815D
:1023A0000248FFF7E7FB10BDA80100200010004025
:1023B00070B504461448006880081449B0FBF1F079
:1023C0000121C1EB40001249088040F2E73048602B
:1023D0001048FFF7CFFB002513E001210D48FFF760
:1023E0008DFB01210B48FFF78FFB00BF012109483E
:1023F000FFF799FB0028F9D000210648FFF784FB7E
:102400006D1CA542E9D370BDF800002040420F00CA
:10241000A80100200010004070B504461448006870
:1024200080081449B0FBF1F00121C1EB40001249D2
:102430000880012048601148FFF79CFB002513E04D
:1024400001210E48FFF75AFB01210C48FFF75CFB06
:1024500000BF01210948FFF766FB0028F9D00021E1
:102460000648FFF751FB6D1CA542E9D370BD000083
:10247000F800002080841E00A80100200010004009
:1024800010B57F2001F058F810BD000000B585B0F0
:1024900001210820FFF758F801208DF810000020D6
:1024A0008DF812004FF48050039000208DF8130037
:1024B00003208DF8110003A9FE48FEF785FF4FF4B5
:1024C0008051FC48FEF7F4FF01210820FFF73CF89B
:1024D00001208DF8100000208DF812004FF40050FC
:1024E000039000208DF8130003208DF8110003A93C
:1024F000F048FEF769FF4FF40051EE48FEF7D8FFB1
:1025000001210820FFF720F801208DF8100000209D
:102510008DF812004FF48040039000208DF81300D6
:1025200003208DF8110003A9E248FEF74DFF4FF498
:102530008041E048FEF7BCFF01210820FFF704F8C6
:1025400001208DF8100000208DF812004FF400409B
:10255000039000208DF8130003208DF8110003A9CB
:10256000D448FEF731FF4FF40041D248FEF7A0FFF8
:1025700001211020FEF7E8FF01208DF81000002057
:102580008DF812004FF40070039000208DF81300B6
:1025900003208DF8110003A9C748FEF715FF4FF47B
:1025A0000071C548FEF784FF002000F033FA0121D6
:1025B0001020FEF7C9FF01218803FEF7F5FF002078
:1025C0008DF810008DF812000420039002208DF881
:1025D000130003208DF8110003A9B748FEF7F4FE9D
:1025E00002210420FFF724F90420019001208DF836
:1025F0000A0000208DF8080008208DF8090001A8C5
:10260000FEF792FE08208DF8000001208DF80300EF
:102610008DF8010003208DF802006846FEF756FF92
:1026200001211020FEF790FF01218803FEF7BCFF77
:1026300000208DF810008DF8120008200390022071
:102640008DF8130003208DF8110003A99A48FEF7B6
:10265000BBFE03210420FFF7EBF8082001900120C6
:102660008DF80A0000208DF8080008208DF8090078
:1026700001A8FEF759FE09208DF8000001208DF811
:1026800003008DF8010004208DF802006846FEF773
:102690001DFF01211020FEF757FF01218803FEF7DF
:1026A00083FF00208DF810008DF812001020039099
:1026B00002208DF8130003208DF8110003A97E4835
:1026C000FEF782FE04210846FFF7B2F810200190C1
:1026D00001208DF80A0000208DF8080008208DF8F0
:1026E000090001A8FEF720FE0A208DF80000012055
:1026F0008DF803008DF8010005208DF80200684672
:10270000FEF7E4FE01211020FEF71EFF01218803E1
:10271000FEF74AFF00208DF810008DF812002020EF
:10272000039002208DF8130003208DF8110003A9F7
:102730006148FEF749FE05210420FFF779F82020C3
:10274000019001208DF80A0000208DF80800082073
:102750008DF8090001A8FEF7E7FD17208DF80000AD
:1027600001208DF803008DF8010006208DF802008D
:102770006846FEF7ABFE01211020FEF7E5FE0121C1
:102780008803FEF711FF00208DF810008DF812006D
:102790004FF40060039001208DF8130003208DF8A2
:1027A000110003A94448FEF70FFE0B210420FFF798
:1027B0003FF84FF40060019001208DF80A000020DE
:1027C0008DF808000C208DF8090001A8FEF7ACFD7B
:1027D00028208DF8000001208DF803008DF80100FD
:1027E00000208DF802006846FEF770FE01211020DF
:1027F000FEF7AAFE01218803FEF7D6FE00208DF821
:1028000010008DF812004FF48050039001208DF8D5
:10281000130003208DF8110003A92748FEF7D4FD0B
:102820000C210420FFF704F84FF4805001900120A0
:102830008DF80A0000208DF808000C208DF80900A2
:1028400001A8FEF771FD28208DF8000001208DF809
:1028500003008DF801008DF802006846FEF736FE91
:1028600001211020FEF770FE01218803FEF79CFE77
:1028700000208DF810008DF812004FF400500390E6
:1028800001208DF8130003208DF8110003A90A48D8
:10289000FEF79AFD0D210420FEF7CAFF4FF4005009
:1028A000019001208DF80A0000208DF808000C200E
:1028B00004E00000000C0240001002408DF8090006
:1028C00001A8FEF731FD28208DF8000001208DF8C9
:1028D00003008DF8010002208DF802006846FEF723
:1028E000F5FD01211020FEF72FFE01218803FEF7E0
:1028F0005BFE00208DF810008DF812004FF4804030
:10290000039001208DF8130003208DF8110003A916
:102910003048FEF759FD0E210420FEF789FF4FF4E1
:102920008040019001208DF80A0000208DF80800F9
:102930000C208DF8090001A8FEF7F6FC28208DF880
:10294000000001208DF803008DF8010003208DF8B0
:1029500002006846FEF7BAFD01211020FEF7F4FDE3
:1029600001218803FEF720FE00208DF810008DF86D
:1029700012004FF40040039001208DF81300032053
:102980008DF8110003A91348FEF71EFD0F21042046
:10299000FEF74EFF4FF40040019001208DF80A0031
:1029A00000208DF808000C208DF8090001A8FEF722
:1029B000BBFC28208DF8000001208DF803008DF865
:1029C000010004208DF802006846FEF77FFD05B087
:1029D00000BD00000010024010B54FF40041024855
:1029E000FEF766FD10BD0000000C024010B54FF46C
:1029F00000410248FEF75EFD10BD0000000C0240E1
:102A000010B54FF400410248FEF756FD10BD00001E
:102A1000000C024010B50446012C04D141020548C7
:102A2000FEF748FD04E04FF400710248FEF740FD58
:102A300010BD00000010024002460020002103E00B
:102A4000535C0344D8B2491C0729F9DBC143C8B21F
:102A5000411CC8B27047000000B58DB001210220B2
:102A6000FEF772FD02208DF8300000208DF8320054
:102A70004FF400500B9001208DF8330003208DF8A7
:102A800031000BA95748FEF79FFC01210220FEF7F9
:102A90005BFD02208DF8300000208DF832004FF4ED
:102AA00080500B9001208DF8330003208DF8310009
:102AB0000BA94C48FEF788FC09220D214948FEF776
:102AC000CBFC09220C214748FEF7C6FC01218806F1
:102AD000FEF74AFD4448FDF7A3FF00208DF82600CD
:102AE0008DF827008DF8280001208DF8290000209E
:102AF0008DF82A0001208DF82B0000208DF822008F
:102B00008DF823000B208DF8240007208DF8250078
:102B10000220ADF8200008A93348FEF736F80F2050
:102B20008DF81A0001208DF81B0000208DF81C0084
:102B30002E4800684FF6FF7101EA4010ADF8100012
:102B40002A48006801EA4010ADF8120027480068E2
:102B500001EA4010ADF814002448006801EA401072
:102B6000ADF816000120ADF818008DF81D0004A87E
:102B7000FDF77EFF012210211B48FDF7FDFF4120DC
:102B80008DF8000001208DF8030000208DF8010071
:102B90008DF802006846FEF799FC01210420FEF73B
:102BA000E3FC0020ADF8060041F61F40ADF804003C
:102BB0006420029001A90E48FEF7DCFF01210C48B9
:102BC000FEF7A2FF1E208DF8000000208DF8010006
:102BD00001208DF802008DF803006846FEF776FCB0
:102BE0000DB000BD000402400068004060000020FD
:102BF0000008004008B5C2788DF8002082788DF872
:102C0000012042788DF8022002788DF803209DED96
:102C1000000A81ED000A08BD08B58DED000A9DF897
:102C20000010C1709DF8011081709DF80210417074
:102C30009DF80310017008BD10B510212548FEF75E
:102C40002EFCD0B94C20244991ED000A00F050F838
:102C500000BF10211F48FEF722FC0028F9D00024F5
:102C600006E04C209FED1D0A00F042F8601CC4B243
:102C7000032CF6DB0A20FFF79BFB5220164991ED4F
:102C8000000A00F035F800BF1548D0ED000A1548DD
:102C9000007800EE100AB8EE400AF4EEC00AF1EE39
:102CA00010FAF1D3002406E052209FED0C0A00F048
:102CB0001FF8601CC4B2032CF6DB0A20FFF778FB78
:102CC000012009494870012211460848FEF745FFD6
:102CD00010BD000000100240900000200000000025
:102CE000A00000209A000020000200200008004000
:102CF00010B52DED028BB0EE408A04464F200C49F2
:102D000008704C20487008468470C01CB0EE480A19
:102D1000FFF782FF0648FFF78FFE0549C8710A4694
:102D200008210448006800F04DF9BDEC028B10BD8D
:102D3000800000207000002010B5044643200C499C
:102D40000870412048704E2088700846C4700020EA
:102D50000871487188710846FFF76EFE0449C87112
:102D60000A4608210348006800F02CF910BD000055
:102D7000800000207000002010B52DED028BB0EE19
:102D8000408A04464F200C4908704C204870084681
:102D90008470C01CB0EE480AFFF73EFF0648FFF7FC
:102DA0004BFE0549C8710A4608210448006800F036
:102DB00009F9BDEC028B10BD800000206C000020E2
:102DC00010B57948C079002848D07748007AE0BB30
:102DD000764890ED000AF7EE000A30EE200A7448BB
:102DE000D0ED000AB4EEE00AF1EE10FA11D820217D
:102DF0007048FEF754FB60B96B48407D48B95220DB
:102E00006D4991ED000AFFF773FF01206649487193
:102E100021E0664890ED000AF7EE000A30EE600A05
:102E20006348D0ED000AB4EEE00AF1EE10FA12DBCE
:102E300010216048FEF733FB68B95B48007D50B94C
:102E40004C205D4991ED000A00E007E0FFF750FFDC
:102E500001205549887100205349C8715248407972
:102E6000C0B1524890ED000A5148D0ED000AB4EECE
:102E7000E00AF1EE10FA0DDB4B48407D50B94A48AC
:102E8000007D38B952209FED4D0AFFF731FF002039
:102E90004549487144488079C0B1444890ED000AE2
:102EA0004348D0ED000AB4EEE00AF1EE10FA0DD876
:102EB0003D48407D50B93C48007D38B94C209FEDDD
:102EC0003F0AFFF715FF0020374988713648007A1E
:102ED00038B152209FED390AFFF70AFF002032492E
:102EE00008723148007D20B110213248FEF7D7FA30
:102EF00038B12D48407DA8B120212E48FEF7CFFAE9
:102F000080B9002406E052209FED2C0AFFF7F0FE66
:102F1000601CC4B2032CF6DB0020234908754875F9
:102F20004871887120480079A8B110212148FEF726
:102F3000B6FA80B91C48407D68B91B48007D50B97D
:102F40004C201F4991ED000AFFF7D2FE00201649E0
:102F50000871487188711448C078A8B120211548BB
:102F6000FEF79DFA80B91048407D68B90E48007D93
:102F700050B95220124991ED000AFFF7B9FE002026
:102F80000949C8704871887100F048FA0648C07B4A
:102F900040B10548007C28B100F0A4F900200249A6
:102FA0000874487410BD000000020020A00000203A
:102FB00028000020001002409000002000000000C7
:102FC000200000202DE9F04385B080460C46914654
:102FD000CDF80080002001908DF809008DF80800E0
:102FE000E0B28DF80A00002005E019F800200DF18C
:102FF0000B010A54401CA042F7DB69460A48FDF762
:10300000D5FE0546002705E029460748FDF762FF83
:1030100006467F1C012E03D04FF6FF708742F3D186
:1030200005B0BDE8F08300000068004021B182894E
:1030300042F40052828104E082894DF6FF731A4007
:10304000828170471AB1838A0B43838202E0838AAC
:103050008B438382704700002DE9FF4705460E46EB
:103060000024A14600BFA046B08900B100BF2C8A51
:1030700024F44054F08804432C82AC8941F20C6063
:103080008443B08831890843718908430443AC8183
:10309000AC8A24F44074B0890443AC826846FEF7DD
:1030A000C5FA2048854202D01F48854202D1DDF88A
:1030B0000C9001E0DDF80890A88900F4004040B1D0
:1030C00009EBC90000EB091031684900B0FBF1F7CA
:1030D00007E009EBC90000EB091031688900B0FB7B
:1030E000F1F76420B7FBF0F004012009642101FB33
:1030F0001078A88900F4004040B1322000EBC800ED
:10310000B0FBF1F000F00700044308E0322000EBD0
:1031100008106421B0FBF1F000F00F0004432C8193
:10312000BDE8FF8700100140001401400246002066
:10313000002103E0535C0344D8B2491C0729F9DBA2
:10314000C143C8B2411CC8B27047000000B58BB083
:1031500001210220FEF7F8F902208DF82800002056
:103160008DF82A004FF40070099001208DF82B0093
:1031700003208DF8290009A94648FEF725F9012109
:103180000220FEF7E1F902208DF8280000208DF8DA
:103190002A004FF48070099001208DF82B00032045
:1031A0008DF8290009A93B48FEF70EF909221146BE
:1031B0003848FEF751F9092208213648FEF74CF944
:1031C00001214806FEF7D0F93348FDF729FC00201D
:1031D0008DF81E008DF81F008DF8200001208DF85D
:1031E000210000208DF8220001208DF8230000200E
:1031F0008DF81A008DF81B000B208DF81C0007209D
:103200008DF81D000220ADF8180006A92248FDF730
:10321000BCFC00208DF8120001208DF81300002066
:103220008DF814001D4800684FF6FF7101EA401048
:10323000ADF808001948006801EA4010ADF80A002E
:103240001648006801EA4010ADF80C001348006809
:1032500001EA4010ADF80E000020ADF8100001208A
:103260008DF8150002A8FDF703FC012202210A488F
:10327000FDF782FC14208DF8040001208DF8070072
:1032800000208DF805008DF8060001A8FEF71EF954
:103290000BB000BD00040240006400402C00002080
:1032A00008B5C2788DF8002082788DF80120427828
:1032B0008DF8022002788DF803209DED000A81ED43
:1032C000000A08BD08B58DED000A9DF80010C17018
:1032D0009DF8011081709DF8021041709DF8031057
:1032E000017008BD10B54448007830B1012827D0DE
:1032F000022843D003287CD15DE04C203F49087070
:1033000045204870482088703D480078C8703D4886
:10331000007808713C4800784871002088710846A0
:10332000FFF704FF3549C8710A460821374800688D
:1033300000F0C0F830480078401C2F49087058E071
:1033400050202E4908704D20487000208870C81CFD
:103350002F4991ED000AFFF7B5FF2848FFF7E6FE79
:103360002649C8710A4608212848006800F0A2F8DA
:1033700021480078401C204908703AE050201F493D
:103380000870487000208870C81C224991ED000A1E
:10339000FFF798FF1948FFF7C9FE1849C8710A4698
:1033A00008211A48006800F085F813480078401C8E
:1033B000114908701DE052201049087041204870E2
:1033C0004D2088701448D0ED000AB0EE600AC81C89
:1033D000FFF778FF0948FFF7A9FE0849C8710A46B8
:1033E00008210A48006800F065F8002002490870CA
:1033F00000BF00BF10BD0000190000204C000020DD
:103400000C0000200D0000200E0000202C000020E9
:10341000A00000209C0000200400002010B52048DF
:10342000007810B1012839D11DE050201D490870E5
:103430004D20487000208870C81C1B4991ED000A7F
:10344000FFF740FF1748FFF771FE1649C8710A469B
:1034500008211648006800F02DF811480078401C3B
:103460000F4908701AE050200E490870487000207B
:103470008870C81C0E4991ED000AFFF723FF094828
:10348000FFF754FE0749C8710A460821074800683B
:1034900000F010F800200249087000BF00BF10BD06
:1034A0001A0000204C000020A00000203000002066
:1034B0009C0000202DE9F04385B080460C469146E3
:1034C000CDF80080002001908DF809008DF80800EB
:1034D000E0B28DF80A00002005E019F800200DF197
:1034E0000B010A54401CA042F7DB69460A48FDF76D
:1034F0005DFC0546002705E029460748FDF7EAFC84
:1035000006467F1C012E03D04FF6FF708742F3D191
:1035100005B0BDE8F08300000064004000BFFEE796
:103520000020014908607047082C004010B5FFF7E3
:10353000F7FFFEF7A5FF10BD00F07F01014A116003
:1035400070470000002C004002E008C8121F08C1AC
:10355000002AFAD170477047002001E001C1121F14
:10356000002AFBD170470000FEF782F91948FEF7E8
:103570005DF8FEF70DFF4FF4FA70FEF719FFFEF746
:1035800085FF6420FEF714FFFFF7E0FD6420FEF7DF
:103590000FFFFFF761FA6420FEF70AFFFEF766FBF4
:1035A0004FF4FA70FEF704FFFFF720FA4FF47A7039
:1035B000FEF7FEFEFFF710FA4F20FFF7BDFB0A20D3
:1035C000FEF7F6FEFFF738FB01200349C87300BF82
:1035D000FEE70000FC0000200002002000000000C8
:1035E00000000000010203040607080900000000B3
:1035F000010203041436000800000020FC00000053
:103600004835000810370008FC0000204405000081
:103610005835000800000000000000000000000015
:10362000000000000000000000000000000000009A
:10363000000000000000000000000000000000008A
:1036400021010000220100002301000024010000EC
:10365000250100002601000000000000000000001D
:10366000000000000000000000000000000000005A
:1036700000000000210100002201000023010000E1
:1036800024010000250100002601000000000000C8
:10369000000000000000000000000000000000002A
:1036A0000000204200009642000000003A001D0089
:1036B000000000000000000000000000000000000A
:1036C00000000000000000000000000000000000FA
:1036D00000000000000000000000000000000000EA
:1036E00000000000000000000000000000000000DA
:1036F00000000000000000000000000000000000CA
:10370000010203040102030406070809007A030A00
:040000050800018965
:00000001FF
