:020000040800F2
:100000008F140020A1010008092B00088328000894
:10001000E5290008E90A00089154000800000000E2
:100020000000000000000000000000009D320008F9
:10003000E11A000800000000352C0008B901000892
:10004000A1540008BB010008BB010008BB01000867
:10005000BB010008BB010008BB010008BB01000890
:10006000BB010008BB010008BB01000861150008C6
:100070003D160008D5160008BB010008BB010008AA
:1000800015170008BB010008BB010008BB010008F0
:10009000ED0A0008BB010008BB010008BB01000815
:1000A0000D350008BB010008BB010008BB010008BA
:1000B000293500085135000871350008BB010008DA
:1000C000BB010008BB010008BB010008BB01000820
:1000D000BB010008BB010008BB010008BB01000810
:1000E000CD220008BB010008BB010008BB010008CD
:1000F000BB010008BB010008BB010008BB010008F0
:10010000BB010008BB010008BB010008BB010008DF
:10011000BB010008BB010008BB010008293600082C
:100120000119000821190008BB010008BB010008E3
:10013000BB010008BB010008BB010008BB010008AF
:10014000BB010008BB010008BB010008BB0100089F
:1001500069190008BB010008BB010008BB010008C9
:10016000BB010008BB010008BB010008BB0100087F
:10017000BB010008BB010008BB0100080000000033
:10018000BB010008BB010008DFF810D000F01EFB27
:1001900000480047C5590008AFF300808F140020C5
:1001A0000648804706480047FEE7FEE7FEE7FEE711
:1001B000FEE7FEE7FEE7FEE7FEE7FEE7A9340008FC
:1001C000890100082DE9FE4F804681EA0300C00F37
:1001D0000C46009021F0004123F00045B8EB0200EE
:1001E000A94105D24046214690461C460B46024690
:1001F00023F00040104347D0270DC7F30A00C3F394
:100200000A510290401A019040286BDAC3F31300A0
:1002100040F4801B0098924620B10023D2EB030AE1
:1002200063EB0B0B01985946C0F14002504600F0B9
:10023000EFF906460D4650465946019A00F007FA76
:1002400010EB08006141002487EA115284EAE77349
:100250001A4340D0009A62B3019A012A4FEA07522A
:1002600015DC001B61EB02014FF0004202EA07526D
:10027000CDE90042001C41F5801132462B4600F0CA
:100280003EFA03B0BDE8F08F40462146F9E7001B77
:1002900061EB0201001C41F5801300185B4120183E
:1002A000A2F5001747EB030140EAD570B6196D417E
:1002B00011E06D084FEA360645EAC0754FEA07526D
:1002C000001B61EB0201001C41F5801149084FEA57
:1002D00030000019514132462B4603B0BDE8F04FC3
:1002E00000F0FEB90098012240000023D0EB02028A
:1002F00063EBE073009821464FEAE074B8EB00002E
:1003000061EB0401E9E783F000435BE781F0004122
:1003100058E72DE9FE4F81EA030404F0004421F080
:10032000004100944FF0000B23F0004350EA010419
:100330005ED052EA03045BD0C3F30A54C1F30A55FA
:100340002C44A4F2F3340194A0FB0254C1F3130132
:1003500041F48011C3F3130343F4801301FB0244FF
:1003600000FB034E840A970A44EA815447EA835704
:10037000A4FB076802958D0A05FB07854FEA932CBD
:1003800004FB0C542705029D4FEA065847EA16372E
:10039000B5EB08056EEB070C870E920E47EA811746
:1003A00042EA8312A7FB0201B6EB0B0164EB0004E7
:1003B0002B0D43EA0C335E1844EB1C50DA465146D1
:1003C000E7FB0201C5F313044FEA0B3343EA14536E
:1003D0004FEA0432019C43EA0603A4F10C040294A0
:1003E000009CCDE900B400F08AF903B0BDE8F08FBD
:1003F00000200146F9E72DE9F04D81EA030404F0FD
:10040000004B21F0004514464FF0000A23F0004154
:1004100050EA050220D054EA01021DD0C5F30A5764
:100420000246C5F31303C1F31300C1F30A5640F4A7
:10043000801543F48013A7EB0608101BD64608F27C
:10044000FD3873EB050002D308F1010801E09218B2
:100450005B41B8F1000F03DA00200146BDE8F08DE2
:1004600000204FF48011064684460EE0171B73EB04
:10047000050705D3121B63EB050306434CEA010C89
:1004800049084FEA300092185B4150EA0107EDD16C
:1004900052EA030012D082EA040083EA050108430D
:1004A00005D0101BAB4106D20122002306E000223A
:1004B0004FF0004302E06FF0010253101AEB060008
:1004C0004CEB085110EB0A0041EB0B01BDE8F04D7D
:1004D00000F006B90EB5C10F80EAE0700844CA0703
:1004E000002140F233438DE80E000A460B4600F02F
:1004F00006F903B000BD0EB540F233410291002170
:10050000CDE900110A460B4600F0F9F803B000BD32
:1005100070B5C1F30A5201F000450024C1F3130184
:1005200040F2FF3341F480119A4201DA002070BD9D
:1005300040F233439A42A2F2334203DC524200F0CB
:1005400076F800E090402C43F1D0404270BDC1F3FA
:100550000A5210B5C1F3130140F2FF3341F4801188
:100560009A4201DA002010BD40F233439A42A2F2CF
:10057000334203DC524200F05AF810BD904010BDE7
:1005800000F0004230F000400AD0C10D01F560716A
:10059000C0F3160042EA0151C208400711437047F8
:1005A000002001467047000030B5041E71F10004C0
:1005B00004DB4FF00044404264EB0101141E73F170
:1005C000000405DB1C464FF00043524263EB04037A
:1005D000994208BF904230BD01F0004330B421F091
:1005E000004150EA010206D00A0DA2F56072C1F383
:1005F0001301002A02DC30BC00207047440F44EA9B
:10060000C104C100E01830BC00EBC25000F031B8AA
:10061000202A04DB203A00FA02F1002070479140C2
:10062000C2F1200320FA03F3194390407047202AB7
:1006300004DB203A21FA02F00021704721FA02F38C
:10064000D040C2F120029140084319467047202A49
:1006500006DBCB17203A41FA02F043EAE07306E0EA
:1006600041FA02F3D040C2F12002914008431946FA
:1006700070470029A8BF7047401C490008BF20F000
:100680000100704710B4B0FA80FC00FA0CF050EA98
:10069000010404BF10BC704749B1CCF1200421FA19
:1006A00004F411FA0CF118BF012121430843A3EB14
:1006B0000C01CB1D4FEA00614FEA102042BF002021
:1006C00010BC704700EBC35010440029A4BF10BCFD
:1006D0007047401C490008BF20F0010010BC704763
:1006E00010B5141E73F1000408DA401C41F100013A
:1006F00092185B411A4301D120F0010010BD2DE991
:10070000F04D92469B4611B1B1FA81F202E0B0FA87
:1007100080F220329046FFF77BFF04460F4640EA06
:100720000A0041EA0B0153465A46084313D01146CA
:1007300053EA010019D0C8F140025046FFF777FF95
:1007400005460E46504659464246FFF761FF0843AC
:1007500005D0012004E020463946BDE8F08D002098
:10076000054346EAE0762C4337430A986305E40ADA
:10077000A0EB08000022FD0A44EA47540A3002D5E3
:1007800000200146E9E7010510196941DDE9084546
:1007900000196941BDE8F04DA2E7000030B5041E24
:1007A00071F1000404DB4FF00044404264EB0101AE
:1007B000141E73F1000405DB1C464FF00043524247
:1007C00063EB04038B4208BF824230BD064C074DE9
:1007D00006E0E06840F0010394E807009847103411
:1007E000AC42F6D3FFF7D4FC305D0008505D000842
:1007F00070B58C1810F8015B15F0070301D110F8E3
:10080000013B2A1106D110F8012B03E010F8016B0F
:1008100001F8016B5B1EF9D12B0705D40023521E92
:100820000DD401F8013BFAE710F8013BCB1A921CFA
:1008300003E013F8015B01F8015B521EF9D5A142F8
:10084000D8D3002070BD000010B501200D490872FA
:10085000887000200C49C8810120488102F0C4F84A
:1008600003F0C2FA01224021084804F015FD0121DD
:10087000074801F0ADF801221146064802F013FFC7
:1008800010BD0000C4010020AA030020004C00405D
:10089000406002400004004010B54348B0F9040035
:1008A0004249B1F9041088421ED03F49B1F9040011
:1008B000002801DB014600E041420A290CDD3A48EC
:1008C000B0F90400404200EE900AF8EEE00AB0EE03
:1008D000600A03F06DFC03E09FED350A03F068FC4D
:1008E00031488088314988802F48B0F90A0020B10A
:1008F000012807D002280FD109E0B3EE0E0A03F059
:10090000E3FB09E09FED2A0A03F0DEFB04E0BBEE07
:100910000E0A03F0D9FB00BF00BF2648D0ED000A45
:10092000B0EE600A00F04EF81F4AB2F9021000293A
:1009300001DB0A4600E04A421F4B1B689A4231DB4A
:10094000194AB2F90200002801DB024600E04242E7
:100950001A4B1B689A4225DC19480078401E40B2A9
:1009600017490870084690F9000000281ADC002199
:10097000FE2004F0D1FB0C48B0F90240002C01DB52
:10098000204600E0604200EE100AB8EEC00ABCEE5D
:10099000C00A10EE100A81B2FE2004F099FB0A2072
:1009A0000749087010BD0000AA030020CA030020F8
:1009B0000000000058000020A45C0008A85C0008AB
:1009C0003C00002010B52DED068BB0EE408A374874
:1009D0000078401E3549087008460078002862DC1F
:1009E000B0EE480A05F000F9314880ED000A3148C0
:1009F00090ED000A2E48D0ED000A30EE600A2E4835
:100A000080ED000A2D48D0ED000A2B4890ED000A39
:100A100005F014F92A4880ED000AD0ED000A2648B6
:100A200090ED000A01F0F8FC2648D0ED000A2648B7
:100A300090ED000A01F076FD012001F053F8234803
:100A400080ED000A2248007848B1224890ED000A63
:100A5000214880ED000A00201D49087009E01B486C
:100A600090ED000A01F02CFD1B4890ED000A03F008
:100A70001BFA114890ED000A104880ED000A02F0C0
:100A80004DFA16480068FFF77BFD41EC1A0B9FED0D
:100A9000140B53EC102BFFF7AEFC41EC190BFFF7D6
:100AA00056FD02490870BDEC068B10BD20010020E8
:100AB00000010020E40000200C01002010010020B3
:100AC000140100201C010020180100200801002052
:100AD000210100205C00002004010020E000002033
:100AE000000000000000244000BFFEE710B5AC4A43
:100AF0000021AC4800F0C2FA0021AA4800F0AFFA89
:100B0000022803DB0021A74800F086F9A44800680A
:100B1000A5490968884205D0A1480068A349096829
:100B200088427DD19E48007A0028FAD19C48807A7C
:100B30000828F6D19A480B3003F059F89849897C77
:100B40008842EED19648C07A52281DD19448007B45
:100B5000552819D19248407B442815D190480E3031
:100B600003F022F9924880ED000A9FED922ADFED12
:100B7000921A9FED921ADFED920A90ED000A05F0AD
:100B800017F8904880ED000A8548C07A43280FD1B5
:100B90008348007B4F280BD18148407B4E2807D1EA
:100BA00001208949487000208870012087494881C8
:100BB0007B48C07A43280CD17948007B4F2808D164
:100BC0007748407B462804D100207F4948700120A7
:100BD00088707348C07A43280ED17148007B412841
:100BE0000AD16F48407B4E2806D16D48807B4F2844
:100BF00002D10120744908726948C07A43280ED195
:100C00006748007B41280AD16548407B4E2806D1C1
:100C10006348807B432802D100206B49087200E0C2
:100C2000BCE05F48C07A45280AD15D48007B4A286D
:100C300006D15B48407B532802D1012062494872AB
:100C40005748C07A522827D15548007B502823D1D5
:100C50005348407B56281FD15148817B5C4800682F
:100C600061F307005A4908604D48C17B5848006845
:100C700061F30F20564908604948017C54480068D8
:100C800061F31740524908604548417C504800686C
:100C900061F31F604E4908604148C07A582827D147
:100CA0003F48007B452823D13D48407B4E281FD13B
:100CB0003B48417C4748006861F3070045490860AC
:100CC0003748017C4348006861F30F2041490860C0
:100CD0003348C17B3F48006861F317403D490860D5
:100CE0002F48817B3B48006861F31F6039490860E9
:100CF0002B48C07A502826D12948007B4D2822D184
:100D00002748407BF8B92648417C3348006861F3A6
:100D10000700314908602248017C2F48006861F3D0
:100D20000F202D4908601E48C17B2B48006861F3E5
:100D30001740294908601A48817B2748006861F3F9
:100D40001F60254908601648C07A502826D11448EB
:100D5000007B502822D11248407BF8B91048417CD2
:100D60001E48006861F307001C4908600C48017CBC
:100D70001A48006861F30F20184908600848C17BD1
:100D80001648006861F31740144908600448817BE5
:100D90001248006861F31F601049086010BD000030
:100DA000B001002000640040080000200C0000207A
:100DB0006400002000007042000070C20000164570
:100DC0000000964468000020C4010020AA0300200F
:100DD00050000020580000205C000020600000202F
:100DE00010B504460B48844209D10121480601F0A0
:100DF00043FF00214FF0007001F03EFF08E00121A9
:100E0000880601F039FF00214FF0806001F034FFC7
:100E100010BD00000064004021B9C26842F0200209
:100E2000C26003E0026942F02002026170470000E4
:100E300010B50021837A012202FA03F13D4A1268BB
:100E400042F001023B4B1A603A4A1C3212688A4354
:100E5000384B1C331A60027BCAB9364A0C3212680E
:100E60008A43344B0C331A604288C38842EA0343F6
:100E7000304A4032847A42F834300288838842EA29
:100E800003432C4A4032847A02EBC4025360027B53
:100E9000012A19D1274A0C3212680A43254B0C3318
:100EA0001A604288038842EA0343224A4032847A25
:100EB00042F83430C288838842EA03431D4A4032F4
:100EC000847A02EBC4025360C27A3AB9194A121DFD
:100ED00012688A43174B1B1D1A6006E0154A121D43
:100EE00012680A43134B1B1D1A60028932B9114A5A
:100EF000143212688A430F4B14331A600289012A94
:100F000006D10C4A143212680A430A4B14331A6091
:100F1000427B012A06D1074A1C3212680A43054B5C
:100F20001C331A60034A126822F00102014B1A6056
:100F300010BD0000006600401AB143690B434361D5
:100F400002E043698B434361704730B5024600209D
:100F50000023146824F002041460146844F00104AF
:100F6000146000E05B1C546804F001041CB94FF6E7
:100F7000FF74A342F6D1546804F001040CB90020B8
:100F80006CE08C79012C04D1146844F08004146066
:100F900003E0146824F080041460CC79012C04D19F
:100FA000146844F04004146003E0146824F0400422
:100FB00014600C7A012C04D1146844F020041460ED
:100FC00003E0146824F0200414604C7A012C04D14E
:100FD000146844F01004146003E0146824F0100452
:100FE00014608C7A012C04D1146844F00804146055
:100FF00003E0146824F008041460CC7A012C04D1B6
:10100000146844F00404146003E0146824F0040439
:1010100014608C78A407CD7844EA05640D7944EA1D
:1010200005444D7944EA05540D886D1E2C43D46166
:10103000146824F001041460002300E05B1C546871
:1010400004F001041CB14FF6FF74A342F6D15468BA
:1010500004F001040CB1002000E0012030BD024684
:10106000002019B9D36803F0030006E0012903D179
:10107000136903F0030000E00020704710B500F58D
:10108000D87303EB01131B6803F004031372137A84
:1010900053B900F5D87303EB01131B6840F2FF74DA
:1010A00004EA5353136009E000F5D87303EB01130E
:1010B0001B686FF0604404EAD303536000F5D873F3
:1010C00003EB01131B6803F00203537200F5D8739E
:1010D00003EB01135B6803F00F03937200F5D87301
:1010E00003EB01135B681B0AD37400F5D87303EBA1
:1010F00001139B68D37200F5D87303EB01139B684F
:101100001C0A147300F5D87303EB01139B681C0CC5
:10111000547300F5D87303EB01139B681B0E937394
:1011200000F5D87303EB0113DB68D37300F5D873B4
:1011300003EB0113DB681C0A147400F5D87303EB8E
:101140000113DB681C0C547400F5D87303EB011316
:10115000DB681B0E937421B9C36843F02003C3609E
:1011600003E0036943F02003036110BD10B502469C
:101170000020936803F08063B3F1806F00D110E02A
:10118000936803F00063B3F1006F01D1012008E020
:10119000936803F08053B3F1805F01D1022000E037
:1011A0000420042874D002F5C07303EB00131B68FD
:1011B00003F0010402F5C07303EB00131C600B7A0B
:1011C0007BB94B7A0C8843EA445302F5C07404EBB4
:1011D00000142468234302F5C07404EB0014236058
:1011E00010E00B7A4C6843EAC4034C7A234302F5BF
:1011F000C07404EB00142468234302F5C07404EBAC
:10120000001423608B7A03F00F038B7202F5C07316
:1012100003EB00135B6823F00F0402F5C07303EBCC
:1012200000135C6002F5C07303EB00135B688C7AFB
:10123000234302F5C07404EB001463608B7B1C062F
:101240004B7B44EA03440B7B44EA0323CC7A2343DD
:1012500002F5C07404EB0014A3608B7C1C064B7C6D
:1012600044EA03440B7C44EA0323CC7B234302F58A
:10127000C07404EB0014E36002F5C07303EB0013C9
:101280001B6843F0010402F5C07303EB00131C60FC
:1012900010BD000010B50246002321B1012907D07E
:1012A00002290FD109E090681D4C00EA04030BE00D
:1012B00090681C4C00EA040306E090681A4C00EAAF
:1012C000040301E0002300BF00BF184C181BA34219
:1012D00016D007DC83B16FF08060184470B102282B
:1012E00018D111E0B0F5007F10D0114C204448B166
:1012F000B0F5003F0ED10BE002230DE000230BE020
:10130000002309E0002307E0012305E0012303E0B7
:10131000012301E0002300BF00BFD8B210BD0000D0
:10132000030000040003000800000310000100088F
:101330000001FFF7F0B504464FF6FF700F46002599
:101340001FE014F805C08CEA000000260FE000F052
:10135000010CBCF1000F05D040084AF2010C80EAF4
:101360000C0000E0400806F1010C0CF0FF06082E0E
:10137000EDDBA7F1010C0CF0FF0705F1010C0CF0FF
:10138000FF05002FDDDC4FEA102C82F800C018703A
:10139000F0BD10B502460B460020002104E0545C6D
:1013A0000444E0B24C1CE1B25C1E8C42F7DCC14349
:1013B000C8B2811CC8B210BD70B52DED048B0446B7
:1013C000F0EE408AB0EE609A0D469FED620AB0EEF4
:1013D000408A44B9F0EE490AB0EE680A04F0F7FB1F
:1013E000B0EE408A05E0012C03D128EE890AB0EE68
:1013F000408A281D092817D2DFE800F00517293B8D
:101400004D5F71839500544890ED000AB4EEC80A10
:10141000F1EE10FA01D280ED008A504890ED000AFA
:1014200030EE080A80ED000A8FE04B4890ED010A8B
:10143000B4EEC80AF1EE10FA01D280ED018A4748F5
:1014400090ED010A30EE080A80ED010A7DE0424885
:1014500090ED020AB4EEC80AF1EE10FA01D280ED66
:10146000028A3E4890ED020A30EE080A80ED020A38
:101470006BE0394890ED030AB4EEC80AF1EE10FAB9
:1014800001D280ED038A354890ED030A30EE080A58
:1014900080ED030A59E0304890ED040AB4EEC80A22
:1014A000F1EE10FA01D280ED048A2C4890ED040A86
:1014B00030EE080A80ED040A47E0274890ED050A5F
:1014C000B4EEC80AF1EE10FA01D280ED058A234885
:1014D00090ED050A30EE080A80ED050A35E01E4859
:1014E00090ED060AB4EEC80AF1EE10FA01D280EDD2
:1014F000068A1A4890ED060A30EE080A80ED060AC0
:1015000023E0154890ED070AB4EEC80AF1EE10FA90
:1015100001D280ED078A114890ED070A30EE080AE3
:1015200080ED070A11E00C4890ED080AB4EEC80AF5
:10153000F1EE10FA01D280ED088A084890ED080A11
:1015400030EE080A80ED080A00BF00BFBDEC048B36
:1015500070BD000000000000380400205C04002082
:1015600010B53049304800F03FFA002859D02F49D3
:101570002F4802F0E1FA2D48007824284DD12B485D
:101580004078412849D129488078552845D12748B5
:10159000C078562841D12548007932283DD12348CA
:1015A0004079302839D121488079302835D11F48F9
:1015B000C079302831D11D4802F0FAFA1B4991F860
:1015C0002010884229D11948083002F000FB194840
:1015D00080ED000A15480C3002F0F9FA154880ED4C
:1015E000010A1248103002F0F2FA124880ED020AA5
:1015F0000E48143002F0EBFA0E4880ED030A0B4857
:10160000183002F0E4FA0B4880ED040A07481C3059
:1016100002F0DDFA074880ED050A0749024800F0AC
:10162000BDF910BD0080201010600240F4010020C0
:10163000D00100201802002000F03D901CB5204988
:10164000204800F0D1F9002839D06B4601AA0721C3
:101650001D48FFF76FFE1C48C0799DF804108842B2
:1016600017D11948007A9DF80010884211D1174807
:10167000007838B91448801C03F052FA144880ED01
:10168000000A06E01048801C03F04AFA104880ED7A
:10169000010A0E48007840B9FA2003F0D5FA0B4849
:1016A0000078401C0949087005E0FA2003F0A8FA08
:1016B0000020064908700249024800F06FF91CBD7D
:1016C0000088001028600240B5020020740000204D
:1016D0007800002010B50A490A4800F085F970B179
:1016E00005210948FFF755FE07490979884202D1CB
:1016F00001200649C8720649024800F04FF910BDA2
:1017000000802010406002403C010020C401002005
:1017100000F03D9010B56F496F4800F065F9002862
:101720007DD06E496E4803F0C3FA0E216B4803F07A
:101730001BFB6A49497B884272D16848401D03F00F
:10174000F7FB00EE100AB8EE400A664880ED000A8A
:101750006248C01D03F0ECFB00EE100AB8EE400A30
:10176000DFED610AB4EEE00AF1EE10FA0FD85B4843
:10177000C01D03F0DDFB00EE100AB8EE400ADFEDFD
:101780005B0A20EE200A574880ED010A28E0534802
:10179000C01D03F0CDFB00EE100AB8EE400ADFEDED
:1017A000540AB4EEE00AF1EE10FA19DBDFED510A4B
:1017B000B0EE600A4948C01D03F0BAFB00EE900A83
:1017C000F8EE600A9FED4A1A70EEC10AB0EE600AA8
:1017D000DFED490A60EE200A4248C0ED010A00BF71
:1017E0003E48007B00EE100AB8EE400A3D4880ED0E
:1017F000040A3A48C07A00EE100AB8EE400AF2EE47
:10180000040A80EE201A374880ED031A3348093065
:1018100003F08EFB00EE100AB8EE400A01E058E03B
:1018200053E0DFED310AB4EEE00AF1EE10FA18D819
:101830002A48093003F07CFB00EE100AF8EE401A4B
:101840002848D0ED030AB0EE600A03F0BBFB21EE9E
:10185000800ADFED250A80EE201A224880ED021A68
:1018600033E01E48093003F063FB00EE100AB8EEC7
:10187000400ADFED1F0AB4EEE00AF1EE10FA24DBB5
:101880009FED1C0AF0EE401A1448093003F050FB9B
:1018900000EE100AB8EE400ADFED150A30EE600ADD
:1018A000F0EE401A0F48D0ED030AB0EE600A03F0E4
:1018B00089FBB1EE400A20EE210ADFED0B0A80EE33
:1018C000201A084880ED021A00BF0C49024800F0B7
:1018D00065F810BD00880020886002408A02002060
:1018E0007C0200209802002000C07F44AE47E13D0A
:1018F0000000804400000000AE47E1BD40FF00A0B2
:1019000010B50449044800F06FF80449024800F09B
:1019100045F810BD008800101064024040FF0090A0
:1019200008B50949094800F05FF838B10848094B83
:10193000094A0A4900900A4801F042FB0949034854
:1019400000F02CF808BD0000008800102864024058
:10195000C1000020C0000020AA0300208A0300204C
:10196000BE02002040FF009010B50749074800F074
:101970003BF838B10649074802F01AFE0649034809
:1019800000F00CF810BD00000088002088640240C0
:10199000560200203002002040FF00A00246094B02
:1019A0009A4201D2084801E00648103801F000537D
:1019B0001BB1064B0B40C36002E0044B0B4083603D
:1019C0007047000010640240006002407D0F7D0FF0
:1019D00021B1026842F00102026003E0026822F0D5
:1019E000010202607047000070B50246002000242A
:1019F0000025124EB24201D2114B01E00F4B103BB9
:101A0000104E0E4036B11E2606EAD124166806EAAC
:101A1000040502E0566906F0800501F000560EB19B
:101A20005C6800E01C68084E344004EA010616B108
:101A30000DB1012000E0002070BD000010640240E4
:101A4000006002403C0F3C0F7D0F7D0F10B501F090
:101A500080034BB122B1436943F08003436103E04B
:101A6000436923F08003436180290BD02AB10368C6
:101A700001F01E042343036004E0036801F01E0428
:101A8000A343036010BD000010B500220268134B91
:101A90001A40CC680B6823434C6923438C69234369
:101AA000CC6923430C6A23434C6A23438C6A234347
:101AB0004C6B23438C6B23431A430260426922F030
:101AC0000702D1E90B3423431A4342610B69436097
:101AD0004B6883608B68C36010BD00003F801CF0C2
:101AE0007047000010B52DED028B0446ED4890EDD7
:101AF000001AF0EE410AEC4890ED001AB0EE410AEF
:101B00006FF003012046FFF757FCE64890ED011AFD
:101B1000F0EE410AE44890ED001AB0EE410A6FF091
:101B200002012046FFF748FCDE4890ED021AF0EE75
:101B3000410ADD4890ED001AB0EE410A6FF0010154
:101B40002046FFF739FCD74890ED041AF0EE410A21
:101B5000D54890ED001AB0EE410A4FF0FF31204613
:101B6000FFF72AFCCF4890ED031AF0EE410ACE4869
:101B700090ED001AB0EE410A00212046FFF71CFC50
:101B8000C84890ED001AF0EE410AC74890ED011ADE
:101B9000B0EE410A6FF002012046FFF70DFCC1488C
:101BA00090ED011AF0EE410ABF4890ED011AB0EE37
:101BB000410A6FF001012046FFF7FEFBB94890EDA6
:101BC000021AF0EE410AB84890ED011AB0EE410A4F
:101BD0004FF0FF312046FFF7EFFBB24890ED041ABB
:101BE000F0EE410AB04890ED011AB0EE410A002132
:101BF0002046FFF7E1FBAB4890ED031AF0EE410AF7
:101C0000A94890ED011AB0EE410A01212046FFF7E4
:101C1000D3FBA44890ED001AF0EE410AA24890EDE3
:101C2000021AB0EE410A6FF001012046FFF7C4FB33
:101C30009C4890ED011AF0EE410A9B4890ED021A83
:101C4000B0EE410A4FF0FF312046FFF7B5FB954853
:101C500090ED021AF0EE410A934890ED021AB0EEB0
:101C6000410A00212046FFF7A7FB8E4890ED041A99
:101C7000F0EE410A8C4890ED021AB0EE410A0121C3
:101C80002046FFF799FB874890ED031AF0EE410AD2
:101C9000854890ED021AB0EE410A02212046FFF776
:101CA0008BFB804890ED001AF0EE410A7E4890EDE3
:101CB000041AB0EE410A4FF0FF312046FFF77CFBDB
:101CC000784890ED011AF0EE410A774890ED041A39
:101CD000B0EE410A00212046FFF76EFB714890EDFF
:101CE000021AF0EE410A704890ED041AB0EE410A73
:101CF00001212046FFF760FB6A4890ED041AF0EEE0
:101D0000410A694890ED041AB0EE410A02212046CA
:101D1000FFF752FB634890ED031AF0EE410A624868
:101D200090ED041AB0EE410A03212046FFF744FB70
:101D30005C4890ED001AF0EE410A5B4890ED031A02
:101D4000B0EE410A00212046FFF736FB554890EDE2
:101D5000011AF0EE410A544890ED031AB0EE410A20
:101D600001212046FFF728FB4E4890ED021AF0EEC5
:101D7000410A4D4890ED031AB0EE410A0221204677
:101D8000FFF71AFB474890ED041AF0EE410A464867
:101D900090ED031AB0EE410A03212046FFF70CFB39
:101DA000404890ED031AF0EE410A3F4890ED031AC7
:101DB000B0EE410A04212046FFF7FEFA3B4890EDC1
:101DC000000A3B48D0ED000A20EE200A3748D0ED4B
:101DD000080A374890ED081A00EE810A3348D0ED22
:101DE000010A334890ED011A00EE810A2F48D0ED28
:101DF000070A2F4890ED071A00EE810A2B48D0ED14
:101E0000020A2B4890ED021A00EE810A2748D0ED15
:101E1000060A274890ED061A00EE810A2348D0ED05
:101E2000030A234890ED031A00EE810A1F48D0ED03
:101E3000050A1F4890ED051A00EE810A1B48D0EDF7
:101E4000040A1B4890ED041A00EE810AB0EE408AA5
:101E5000164890ED000AD0ED010A30EE200AD0EDD0
:101E6000020A30EE200AD0ED030A30EE200AD0ED4F
:101E7000040A30EE200AD0ED080A30EE200AD0ED38
:101E8000070A30EE200AD0ED060A30EE200AD0ED27
:101E9000050A30EE200AF0EE408A88EE280ABDECF2
:101EA000028B10BD00040020EC0300205C04002025
:101EB0001404002010B59148007807287ED2DFE88E
:101EC00000F0040E386793C7EF004FF496708C490A
:101ED00008808C480078401C8A4908700BE18A48C9
:101EE00090ED000ADFED890AB4EEE00AF1EE10FA97
:101EF00007D290ED000AF1EE040A30EE200A80EDE0
:101F0000000A814890ED000AB1EE400A02F050F953
:101F10007B480088401E7A4908800846008838B906
:101F200078480078401C77490870FA207449088086
:101F3000E1E0754890ED000AB5EEC00AF1EE10FA46
:101F400007DD90ED000AF2EE040A30EE600A80ED43
:101F5000000A6D4890ED000AB1EE400A02F028F93F
:101F60006B48D0ED000AB0EE600AFEF72BFD644826
:101F70000088401E624908800846008838B96148D8
:101F80000078401C5F490870FA205D490880B2E083
:101F90005D4890ED000ADFED5D0AB4EEE00AF1EE77
:101FA00010FA07D290ED000AF1EE040A30EE200A92
:101FB00080ED000A544890ED000A00E095E0B1EE93
:101FC000400A02F0F5F84E480088401E4C4908804F
:101FD0000846008838B94B480078401C49490870C9
:101FE000FA204749088086E045480088FA2807D14A
:101FF0009FED480A01F058FF9FED460A02F0A6F84F
:10200000414890ED000AB5EEC00AF1EE10FA07DD86
:1020100090ED000AF2EE040A30EE600A80ED000A4C
:10202000394890ED000AB1EE400A02F0C1F8344898
:102030000088401E324908800846008838B94FF4AD
:10204000967008802F480078401C2E49087052E096
:102050002D4890ED000ADFED2D0AB4EEE00AF1EE16
:1020600010FA07D290ED000AF1EE040A30EE200AD1
:1020700080ED000A244890ED000AB1EE400A02F01B
:1020800097F81F480088401E1D49088008460088B0
:1020900020B91C480078401C1A4908702BE0FFE763
:1020A000194890ED000AB5EEC00AF1EE10FA07DD0E
:1020B00090ED000AF2EE040A30EE600A80ED000AAC
:1020C000114890ED000AB1EE400A02F071F80E4896
:1020D00090ED000AB5EEC00AF1EE10FA04D80948F6
:1020E0000078401C0749087005E000200A49087084
:1020F0000A49087000BF00BF10BD00003500002075
:102100003600002034000020380000200000C842C3
:1021100058000020000000003300002032000020A2
:1021200010B56348007805287DD2DFE800F0030D84
:10213000376B94004FF496705E4908805C480078D5
:10214000401C5B490870B1E05B4890ED000ADFED90
:102150005B0AB4EEE00AF1EE10FA07D290ED000A45
:10216000F1EE040A30EE200A80ED000A524890EDAC
:10217000000AB1EE400A02F01BF84E480088401EEB
:102180004C4908800846008838B949480078401C06
:1021900047490870FA204749088087E04548008889
:1021A000FA2807D19FED460A01F07EFE9FED440A12
:1021B00001F0CCFF404890ED000AB5EEC00AF1EE08
:1021C00010FA07DD90ED000AF2EE040A30EE600A24
:1021D00080ED000A384890ED000AB1EE400A01F0A7
:1021E000E7FF34480088401E3249088008460088CE
:1021F00038B94FF4967008802D480078401C2C495F
:10220000087053E02C4890ED000ADFED2C0AB4EE84
:10221000E00AF1EE10FA09D290ED000AF1EE040A9C
:1022200030EE200A00E03BE080ED000A224890ED0D
:10223000000AB1EE400A01F0BBFF1E480088401EB4
:102240001C4908800846008820B919480078401CBD
:10225000174908702AE0184890ED000AB5EEC00A48
:10226000F1EE10FA07DD90ED000AF2EE040A30EE0E
:10227000600A80ED000A104890ED000AB1EE400AB5
:1022800001F096FF0C4890ED000AB5EEC00AF1EEA1
:1022900010FA04D806480078401C0549087005E08B
:1022A0000020084908700849087000BF00BF10BD31
:1022B0003400002036000020380000200000C84212
:1022C00000000000330000203200002010B54FF461
:1022D000006000F045F828B1012019490870C002DB
:1022E00000F038F84FF4805000F03AF828B101209F
:1022F00014490870000300F02DF84FF4005000F06E
:102300002FF828B1012010490870400300F022F88E
:102310004FF4804000F024F828B101200B490870E8
:10232000800300F017F84FF4004000F019F828B1CE
:10233000012007490870C00300F00CF810BD000030
:102340006C0000206D0000206E0000206F00002057
:10235000700000200149086070470000143C0140F3
:1023600001460020034A12680A400AB1012000E039
:1023700000207047143C0140002123498279002A43
:102380003AD00A46126803689A430B461A600A1D3F
:10239000126803689A430B1D1A60027911440A6897
:1023A00003681A430A60184A0832126803689A439D
:1023B000154B08331A601A1D126803689A43124BB2
:1023C0000C331A604279102A0ED11A1F1268036862
:1023D0001A430D4B08331A601A1D126803681A431A
:1023E000094B0C331A600DE00749427911440A6821
:1023F00003681A430A6005E0027911440A68036819
:102400009A430A6070470000003C0140014A107086
:1024100070470000003C0240254890ED001A20EE75
:10242000011A244880ED001A234890ED001A20EE8E
:10243000811A224880ED001A1E4890ED001AFFEE26
:10244000001AB4EEE11AF1EE10FA04D2BFEE001A4F
:1024500080ED001A0DE0174890ED001AF7EE001A13
:10246000B4EEE11AF1EE10FA03DDB7EE001A80EDDA
:10247000001A124890ED001AFFEE001AB4EEE11AAD
:10248000F1EE10FA04D2BFEE001A80ED001A0DE052
:102490000A4890ED001AF7EE001AB4EEE11AF1EED8
:1024A00010FA03DDB7EE001A80ED001A7047000045
:1024B000F400002018010020F80000201C0100207A
:1024C0001448D0ED000A60EE200AB0EE600A12480F
:1024D000D0ED000A70EE800AC0ED000AD0ED000ACF
:1024E0009FED0E1AF4EEC10AF1EE10FA04DDDFEDF5
:1024F0000B0AC0ED000A0BE00748D0ED000AF5EE2C
:10250000C00AF1EE10FA03D2DFED050AC0ED000AB1
:1025100070470000FC000020040100200000684219
:102520000000000010B52DED028BF0EE408AB0EEF9
:10253000608A754890ED000AB1EE400AB0EE402A7C
:1025400090ED010AB1EE400AF0EE401ABFEE001A1B
:10255000F8EE000AB0EE680A00F0DEF86B4880ED95
:10256000000A694890ED000AB1EE400AF0EE401A08
:1025700090ED000AB1EE400AB0EE401A90ED010A6B
:10258000B1EE400AF0EE400A9FED612AB0EE680A13
:1025900000F0C2F85D4880ED010A5B4890ED000A4A
:1025A000B0EE402A90ED000AB1EE400AF0EE400A8B
:1025B000DFED571A9FED561AB0EE680A00F0ACF83E
:1025C000524880ED020A504890ED010AB0EE402AD0
:1025D00090ED000AF0EE401A90ED000AB0EE401ABD
:1025E000DFED4B0AB0EE680A00F096F8474880ED40
:1025F000040A454890ED010AB0EE401A90ED000A39
:10260000F0EE400AB0EE002AF7EE001AB0EE680ACB
:1026100000F082F83D4880ED030A3B4890ED000A47
:10262000B1EE400AB0EE402A90ED010AB1EE400A48
:10263000F0EE401ABFEE001AF8EE000AB0EE480ABB
:1026400000F06AF8334880ED000A2F4890ED000A48
:10265000B1EE400AF0EE401A90ED000AB1EE400AE9
:10266000B0EE401A90ED010AB1EE400AF0EE400AD9
:102670009FED272AB0EE480A00F04EF8254880ED7D
:10268000010A214890ED000AB0EE402A90ED000AC0
:10269000B1EE400AF0EE400ADFED1D1A9FED1C1A64
:1026A000B0EE480A00F038F81A4880ED020A1648E1
:1026B00090ED010AB0EE402A90ED000AF0EE401ACB
:1026C00090ED000AB0EE401ADFED110AB0EE480AB4
:1026D00000F022F80F4880ED040A0B4890ED010A43
:1026E000B0EE401A90ED000AF0EE400AB0EE002A7B
:1026F000F7EE001AB0EE480A00F00EF8054880ED3B
:10270000030ABDEC028B10BD28010020EC03002061
:102710000000000000040020F0EE402AF4EEE02A61
:10272000F1EE10FA02D89FED1E0A7047F4EEE02A8F
:10273000F1EE10FA0BDDF4EEC12AF1EE10FA06D23A
:1027400032EEE03A71EE603A83EE230AEDE7F4EE02
:10275000C12AF1EE10FA07DBF4EEE12AF1EE10FAED
:1027600002D8B7EE000AE0E7F4EEE12AF1EE10FA43
:102770000BDDF4EEC22AF1EE10FA06D232EE623A26
:1027800072EE613A83EE230ACFE7F4EEC22AF1EE4D
:1027900010FA02DB9FED020AC7E700BFC5E70000A1
:1027A00000000000F0B50A4600210023002400BF0D
:1027B0003DE0012505FA01F3156805EA03049C4292
:1027C00034D105684F000326BE40B5430560157936
:1027D0004E00B5400668354305601579012D02D0DD
:1027E0001579022D16D185684F000326BE40B543EA
:1027F000856055794E00B5408668354385604568EB
:1028000001268E40B5434560456896798E40B6B244
:1028100035434560C5684F000326BE40B543C560DB
:10282000D5794E00B540C6683543C560491C1029AE
:10283000BFD3F0BDF0B5002300244D07ED0E02FA22
:1028400005F3CE1000F1200555F826504E07F70E7F
:102850000F26BE40B543CF1000F1200646F82750A2
:10286000CE1000F1200555F8265045EA0304CE109D
:1028700000F1200545F82640F0BD418370470183F3
:10288000704700BFFEE7000010B50F480078401EFB
:1028900040B20D490870084690F90000002811DC8C
:1028A0000021FE2002F038FC084890ED000ABCEE42
:1028B000C00A10EE100A81B2FE2002F009FC0A20C4
:1028C0000149087010BD00003C0000206400002099
:1028D00008B53748374B384A38490090384800F037
:1028E0006FFB3548B0F90E0010B1012847D133E035
:1028F0003448807838B13348407820B900203149D5
:10290000C87101F0ADFB2F48407820B32D48807886
:1029100008BB00BF01202C4908702A48C079C0B10B
:102920009FED2A0A01F044FC9FED280A01F0CCFB40
:102930009FED260A01F076FA2548008881B2FE2034
:1029400002F0C6FB00201F49C87148700120887042
:1029500015E001F0DBFA12E01748007B1D49087012
:102960001548007A1C49087000201C4908701C4951
:10297000087001201349487000208870CAE700BF22
:102980001048007A48B10F48407A30B101F052FC4B
:1029900000200C49487201F03FFD00F0A1FC0948FD
:1029A000C07A20B102F002FD00200649C87208BDBD
:1029B000C1000020C0000020AA0300208A030020DC
:1029C000BE020020C40100203000002000000000F2
:1029D000AC5C0008330000203200002034000020EE
:1029E0003500002000BFFEE710B52DED048B384800
:1029F0000068FDF7C5FD41EC190B53EC192B9FED59
:102A0000350B51EC100BFDF7F6FC41EC180BFDF704
:102A1000E3FD3249086032480068FDF7B1FD41EC42
:102A2000190B53EC192B9FED2B0B51EC100BFDF7F1
:102A3000E2FC41EC180BFDF7CFFD2A4908602A485B
:102A400090ED000A294880ED000A9FED290A2948E7
:102A500080ED000A9FED280A80ED010A9FED240A0F
:102A6000264880ED000A9FED240A80ED010AB7EEAA
:102A7000000A234880ED080AB6EE080A80ED070A2E
:102A8000B6EE000A80ED060AB5EE000A80ED050AF2
:102A90009FED1C0A80ED040A90ED050AB1EE400A94
:102AA00080ED030A90ED060AB1EE400A80ED020ABD
:102AB00090ED070AB1EE400A80ED010A90ED080A98
:102AC000B1EE400A80ED000ABDEC048B10BD0000A1
:102AD000E8000020000000000000F03FF4000020AB
:102AE000EC000020F8000020F0000020FC00002096
:102AF000C3F5A83E28010020C3F5283F300100207F
:102B000014040020000000007047000070B5002190
:102B100000230F22C4781CB3174C246804F4E0642B
:102B2000C4F5E064C4F30721C1F10404E3B20A412F
:102B300044789C40E1B28478144021430C07210E74
:102B40000E4C05786155047804F01F050124AC4053
:102B500005786D11AD0005F1E025C5F8004109E0EB
:102B6000047804F01F050124AC40054D0678761169
:102B700045F8264070BD00000CED00E000E400E0E8
:102B800080E100E010B5224890ED000ABCEEC00ADA
:102B900010EE100A1F4908701F4890ED000ABCEEA5
:102BA000C00A10EE100A48701C48D0ED000AB0EEC2
:102BB000600A881C01F008F9194890ED000ABCEE83
:102BC000C00A10EE100A13498871164890ED000AE9
:102BD000BCEEC00A10EE100AC871134890ED000A4E
:102BE000BCEEC00A10EE100A0872104890ED000A00
:102BF000BCEEC00A10EE100A48720D4800788872C8
:102C00000C210448FEF7C5FB0249C87210BD000044
:102C10005C0000208004002060000020580000209C
:102C2000E8000020EC000020F0000020E40000207C
:102C3000300000207047000029B1064A12680243A4
:102C4000044B1A6004E0034A12688243014B1A6085
:102C5000704700003038024029B1064A126802432A
:102C6000044B1A6004E0034A12688243014B1A6065
:102C7000704700004038024029B1064A12680243FA
:102C8000044B1A6004E0034A12688243014B1A6045
:102C9000704700002038024029B1064A12680243FA
:102CA000044B1A6004E0034A12688243014B1A6025
:102CB00070470000443802401448006840F00100AA
:102CC0001249086000201149083108600F48006867
:102CD0000F4908400D4908600E48091D08600E485C
:102CE0000A49843108600B481038091D08600748FC
:102CF000006820F4802005490860002003490C3159
:102D0000086002498C3108607047000000380240BA
:102D1000FFFFF6EA1030002400300020F0B500215B
:102D200000220024022500260223324F3F6807F0CC
:102D30000C0121B1042905D0082937D105E02E4F17
:102D4000076036E02D4F076033E02A4F3F1F3F6892
:102D5000C7F38056274F3F1F3F6807F03F036EB110
:102D6000264FB7FBF3F7DFF88CC0ACF1040CDCF8AE
:102D700000C0CCF3881C07FB0CF40CE01E4FB7FB23
:102D8000F3F7DFF870C0ACF1040CDCF800C0CCF352
:102D9000881C07FB0CF4174F3F1F3F68C7F3014720
:102DA0007F1C7D00B4FBF5F7076002E0124F07605F
:102DB00000BF00BF0F4F3F6807F0F0010909104F37
:102DC0007A5C0768D74047600A4F3F6807F4E051D4
:102DD000890A0B4F7A5C4768D7408760054F3F6888
:102DE00007F46041490B064F7A5C4768D740C760DB
:102DF000F0BD0000083802400024F40000127A0000
:102E00004101002010B501460022002300204A1194
:102E1000012A02D10A4C236808E0022A03D1084C97
:102E20007034236802E0064C7434236801F01F02FA
:102E3000012494401C400CB1012000E0002010BD92
:102E40000038024001460020034A106820F0F000DC
:102E50000843106070470000083802400021024A11
:102E60001170114608707047023802400146002078
:102E7000034A106820F4E0500843106070470000D7
:102E80000838024001460020034A106820F46040E0
:102E900040EAC100106070470838024001490866E6
:102EA000704700000000474270B5049C41EA82155B
:102EB0000126C6EB530645EA0645054345EA046587
:102EC000014E356070BD000004380240014600200C
:102ED000034A106820F003000843106070470000A8
:102EE0000838024038B5002000900024002500BFBB
:102EF0003120FFF787FF05460098401C009000989E
:102F0000B0F5A04F01D0002DF2D03120FFF77AFFAD
:102F100008B1012400E00024204638BD9FED250AB9
:102F2000254880ED000A9FED230A80ED010A9FED00
:102F3000210A80ED020A9FED1F0A80ED030A9FED32
:102F40001D0A80ED040A9FED1B0A80ED050A9FED26
:102F5000190A80ED060A9FED170A80ED070A9FED1A
:102F6000150A80ED080A9FED130A144880ED000A47
:102F70009FED100A80ED010A9FED0E0A80ED020A16
:102F80009FED0C0A80ED030A9FED0A0A80ED040A0A
:102F90009FED080A80ED050A9FED060A80ED060AFE
:102FA0009FED040A80ED070A9FED020A80ED080AF2
:102FB0007047000000000000380400205C0400207E
:102FC0002DE9F0412DED048B82B004460D461646E6
:102FD0001F46DDF83080E0780F287DD1E07E0028A4
:102FE000FBD1002D79D02179607941EA0020C0F32E
:102FF0000A0028806079C110A07941EA4010C0F32E
:103000000A006880A0798111E07941EA8001207A84
:1030100041EA8020C0F30A00A880207A4110607A3B
:1030200041EAC010C0F30A00E880607A0111A07A7A
:1030300041EA0010C0F30A002881A07AC111E07AA9
:1030400041EA4001207B41EA4020C0F30A00688148
:10305000207B8110607B41EA8010C0F30A00A881C8
:10306000607B4111A07B41EAC000E881E17B207CCC
:1030700041EA0020C0F30A002882207CC110607C55
:1030800041EA4010C0F30A006882607C8111A07C94
:1030900041EA8001E07C41EA8020C0F30A00A88276
:1030A000E07C4110207D41EAC010C0F30A00E882B4
:1030B000207D0111607D41EA0010C0F30A002883E1
:1030C000607DC111A07D41EA4001E07D41EA4020E0
:1030D000C0F30A00688301E0C8E0A9E0E07D811048
:1030E000207E41EA8010C0F30A00A883207E4111AF
:1030F000607E41EAC000E883E88BB0F5FA7F03DA2E
:1031000001205B49887163E0002059498871594862
:1031100000906888584B40F21372B02102F09AFC7C
:1031200000B270803A2000902888002340F2137289
:10313000B02102F08FFC00B230800220009068893C
:10314000002340F21372AC2102F084FC00B27081C3
:1031500001200090E889002340F21372AC2102F0B4
:1031600079FC00B2F081A888FDF7C5F941EC190B94
:103170009FED424B9FED433B9FED442B9FED451B45
:10318000B0EE490AF0EE690A02F0C4FCB0EE408AE3
:10319000F0EE608AB0EE480AF0EE680A02F066FCD3
:1031A000B080022000902889002340F21372AC21E5
:1031B00002F050FC00B2308101200090A889002369
:1031C00040F21372AC2102F045FC00B2B08100BFA6
:1031D0002748807918B901202549487101E000206D
:1031E000F081F089012805D12148407910B10120F2
:1031F0001F490870F08960B91D48007848B11C4823
:10320000807930B900201A49487001208870002068
:1032100008701748807928B11548407910B101200D
:103220001349C8711248C07910B100201049487183
:10323000B8F1000F0AD0A07E00F0040018B1012000
:1032400088F8000002E0002088F8000047B1A07E66
:1032500000F0080010B10120387001E00020387043
:10326000012002B0BDEC048BBDE8F0810020F8E73E
:10327000C401002050FBFFFFA0F6FFFF66666666F4
:103280006666104066666666666610C000000000EE
:10329000004C9C400000000000806540704700002A
:1032A00030B500228B071C0F0F2303FA04F20B4BDF
:1032B0008C1053F824309343084C8D1044F825307B
:1032C00023468C1053F824308C07240F00FA04F4A2
:1032D0002343024C8D1044F8253030BD083801409E
:1032E00010B52248007848BB2148007820B1012859
:1032F0000CD0022821D113E041211E4802F051F8E0
:103300001B480078401C1A49087016E052211948E1
:1033100002F047F816480078401C154908700CE088
:103320004D21144802F03DF8FFF72CFC0020104915
:10333000087001200D49087000BF16E00E480F4AC2
:103340001278815C0B4802F02CF80C480078401C85
:103350000A490870084600780C2806D1FFF712FCCD
:103360000020064908700149087010BD390100208D
:1033700038010020004C0040800400203A01002069
:1033800038B5FFF799FC0120FFF768FDFFF7AAFDAC
:103390000446012C23D1072002234FF4A8720821F0
:1033A0000090C804FFF780FD0120FFF777FD00BF04
:1033B0003920FFF727FD0028FAD00520FFF726F86F
:1033C0000020FFF73FFD4FF4A050FFF74FFD4FF4F3
:1033D0008050FFF757FD0220FFF778FD01E000BFA6
:1033E000FEE700F001F838BD70B50020002202238E
:1033F00000240221274D2D6805F00C0020B104287F
:1034000006D0082834D107E0234D244E356033E040
:10341000234D224E35602FE01E4D2D1F2D68C5F324
:1034200080541C4D2D1F2D6805F03F0154B11C4DDB
:10343000B5FBF1F5174E361F3668C6F3881605FB47
:1034400006F209E0144DB5FBF1F5124E361F366851
:10345000C6F3881605FB06F20E4D2D1F2D68C5F329
:1034600001456D1C6B00B2FBF3F50C4E356003E0BB
:10347000094D0A4E356000BF00BF064D2D68C5F3EB
:103480000315084E705D054D2D68C540034E35602F
:1034900070BD0000083802400024F40054010020F0
:1034A00000127A00C05C00081448006840F4700004
:1034B000124908601248006840F001001049086095
:1034C00000200F49083108600D4800680D49084088
:1034D0000B4908600C48091D0860081F006820F4AB
:1034E0008020091F0860002005490C3108604FF05A
:1034F00000600249803908607047000088ED00E0F4
:1035000000380240FFFFF6FE1030002410B5012104
:10351000044800F0B7F818B10121024800F097F80C
:1035200010BD00000040014010B50121880700F0E7
:10353000A9F8012809D10121800700F088F84FF08F
:10354000804000F093F80149086010BD9C00002005
:1035500010B50121054800F095F808B1FFF7B8F95A
:103560000121024800F073F810BD00000004004083
:1035700010B50121214800F085F801283CD1012136
:103580001E4800F064F81E4890ED000ADFED1D0AA9
:1035900020EE200AF1EE000A20EE200ADFED1A0AE2
:1035A00080EE201A9FED190A31EE000A184880EDCE
:1035B000000A4FF0804000F059F81649086016489C
:1035C00090ED002A1548D0ED001A154890ED001A2C
:1035D000084690ED000AF8EEC00A0D4890ED000A8A
:1035E00000F0F0F8BCEEC00A10EE100A0D49088099
:1035F0000846008800F0D2F910BD00000008004025
:10360000B000002000A039450000B4430060EA4645
:10361000840000209C000020BC000020B800002096
:10362000B40000208000002010B50121054800F002
:1036300029F830B1012001F00BFD0121014800F013
:1036400006F810BD00140040CA4302827047CA4306
:103650000282704721B1028842F00102028004E038
:1036600002884FF6FE731A40028070470146486A8E
:10367000704702460020138A0B400BB1012000E086
:103680000020704730B50246002000230024158A30
:1036900005EA0103958905EA010413B10CB1012083
:1036A00000E0002030BD1AB183890B43838102E022
:1036B00083898B43838170474163704741627047C0
:1036C00000220288184B98420ED0184B98420BD01B
:1036D000B0F1804F08D0164B984205D0154B984258
:1036E00002D0154B984204D14FF68F731A404B8885
:1036F0001A43124B984207D0114B984204D04FF610
:10370000FF431A400B891A4302804B68C3620B883F
:103710000385054B984202D0044B984201D18B7A25
:1037200003860123838270470000014000040140AA
:103730000004004000080040000C00400010004061
:103740000014004010B54FF480610448FFF797F86B
:103750004FF400710148FFF790F810BD00000240DF
:1037600010B54FF400710448FFF789F84FF48061F9
:103770000148FFF782F810BD000002400E4890EDAE
:10378000000ADFED0E0AB4EEE00AF1EE10FA03DBF8
:103790009FED0A0A80ED000A074890ED000ADFED70
:1037A000080AB4EEE00AF1EE10FA03D89FED040A1D
:1037B00080ED000A70470000940000200000BE4227
:1037C00000005C4210B52DED068BB0EE408AF0EEA5
:1037D000608AB0EE419AF0EE619AB0EE42AA38EEFD
:1037E000680A644880ED000AF3EE040A8AEE200AB3
:1037F000DFED610A80EE201A9FED600A29EE800A53
:10380000D0ED000A5E48D0ED001A70EEA10A20EE5D
:10381000200A5848D0ED000A09EE200AD0ED000A2F
:103820005748D0ED001AB0EE002A42EE610A554822
:10383000D0ED001A70EEA10A01EE200A524880ED88
:10384000000A4F4890ED000A4E4880ED000A4948B2
:1038500090ED000A4A4880ED000A9FED4C0AB4EE54
:10386000C08AF1EE10FA43DD424890ED000ADFED28
:10387000480AB4EEE00AF1EE10FA12DDFFF770FF2D
:10388000414890ED000ADFED430A30EE200A80ED5A
:10389000000AFFF773FF3C4890ED000ABDEC068B71
:1038A00010BD344890ED000ADFED3B0AB4EEE00AAB
:1038B000F1EE10FA10D2FFF745FF334890ED000A01
:1038C000DFED340A30EEC00A80ED000AFFF756FF44
:1038D0002D4890ED000AE1E700F07CF800F068F870
:1038E0009FED2C0A284880ED000A90ED000AD5E7EC
:1038F000204890ED000ADFED280AB4EEE00AF1EE70
:1039000010FA10D2FFF71EFF1F4890ED000ADFEDFE
:10391000210A30EEC00A80ED000AFFF72FFF1A4897
:1039200090ED000ABAE7134890ED000ADFED180A9F
:10393000B4EEE00AF1EE10FA10DDFFF711FF1248C5
:1039400090ED000ADFED130A30EE200A80ED000A48
:10395000FFF714FF0C4890ED000A9FE700F03AF8DB
:1039600000F026F89FED0B0A074880ED000A90ED65
:10397000000A93E78800002000007A44000000005D
:103980008C00002090000020940000200060EA4697
:1039900000008C4200005C4200008CC210B504465E
:1039A00021460248FFF788FE10BD000000000140DC
:1039B00010B59FED060A064880ED000A47F2305127
:1039C0004FF08040FFF77AFE10BD000000000000BD
:1039D000B000002010B54FF400710448FEF74DFF11
:1039E0004FF480610148FEF748FF10BD000002401F
:1039F00000B597B001210420FFF71EF90121C8048A
:103A0000FFF72AF901210420FFF716F902208DF8AB
:103A1000580000208DF85A004FF4006015900020E7
:103A20008DF85B0002208DF8590015A93E48FEF77D
:103A3000B9FE02208DF8580000208DF85A004FF48E
:103A40008060159000208DF85B0002208DF85900F1
:103A500015A93548FEF7A6FE08220A213248FEF7CE
:103A6000E9FE08220B213048FEF7E4FE4FF4E13076
:103A700011900020ADF84800ADF84A00ADF84C00B8
:103A8000ADF850000C20ADF84E0011A9274801F008
:103A900019FC00224021254801F0FEFB01214805C8
:103AA000FFF7CAF84FF000600290214804901F48C9
:103AB000001D03900020059005200690002007902F
:103AC0004FF480600890002009900A904FF48070B5
:103AD0000B9040020C9000200D9001200E900020D1
:103AE0000F90109002A91348FDF7CEFF0021114856
:103AF000FDF76EFF012210210E48FDF7A7FF0D20F4
:103B00008DF8040000208DF8050005208DF80600D2
:103B100001208DF8070001A8FEF7F8FF01210348F6
:103B200001F0AEFB17B000BD00080240004C0040A1
:103B30003C0100204060024010B50A4600230021ED
:103B400021E0445C242C1DD14C1C045D412C19D176
:103B50008C1C045D552C15D1CC1C045D562C11D148
:103B60000C1D045D322C0DD14C1D045D302C09D18F
:103B70008C1D045D302C05D1CC1D045D302C01D191
:103B8000CBB202E0491C2429DBDB00BF00210CE0A2
:103B90005C18242C03DA5C18045D545404E0C3F16F
:103BA00024040C1B045D5454491C2429F0DB10BD73
:103BB00002460020002103E0535C0344D8B2491CB4
:103BC0002029F9DBC143C8B2411CC8B2704708B50F
:103BD00001788DF8001041788DF8011081788DF80A
:103BE0000210C1788DF803109DED000A08BD024651
:103BF0000020002103E0535C0344D8B2491C07298C
:103C0000F9DBC143C8B2411CC8B2704700B58DB0E2
:103C100001210220FFF710F802208DF8300000206B
:103C20008DF832004FF400700B9001208DF83300B6
:103C300003208DF831000BA95648FEF7B3FD012192
:103C40000220FEF7F9FF02208DF8300000208DF8E9
:103C500032004FF480700B9001208DF83300032068
:103C60008DF831000BA94B48FEF79CFD0922114647
:103C70004848FEF7DFFD092208214648FEF7DAFD35
:103C800001214806FEF7E8FF4348FDF7A9F80020A8
:103C90008DF826008DF827008DF8280001208DF87A
:103CA000290000208DF82A0001208DF82B0000202B
:103CB0008DF822008DF823000B208DF824000720BA
:103CC0008DF825000220ADF8200008A93248FDF744
:103CD0003CF900208DF81A008DF81B008DF81C00AF
:103CE0002E4800684FF6FF7101EA4010ADF8100051
:103CF0002A48006801EA4010ADF812002848006820
:103D000001EA4010ADF814002548006801EA4010AF
:103D1000ADF816000020ADF8180001208DF81D0048
:103D200004A8FDF785F8012202211B48FDF704F9DC
:103D300014208DF8000001208DF8030000208DF87C
:103D400001008DF802006846FEF7E0FE0121022026
:103D5000FEF782FF0020ADF8060041F61F40ADF8E7
:103D600004006420029001A90E48FFF7A9FC01217C
:103D70000C48FFF76FFC1D208DF8000001208DF826
:103D800001008DF802008DF803006846FEF7BEFEC4
:103D90000DB000BD00040240006400400800002097
:103DA0001C0000200004004008B5C1788DF8001008
:103DB00081788DF8011041788DF8021001788DF826
:103DC00003109DED000A08BD08B58DED000A9DF8B1
:103DD000031001709DF8021041709DF80110817070
:103DE0009DF80010C17008BD10B543200B49087044
:103DF000412048704E2088704F20C8700020087104
:103E0000487188710846FFF7F2FE0449C8710A46F6
:103E100008210348006800F01FFB10BD28000020A7
:103E20000C00002010B52DED028BB0EE408A4F2023
:103E30001A4908704D204870B5EEC08AF1EE10FAAC
:103E400005DB52208870164880ED008A07E04C2080
:103E500012498870B1EE480A114880ED000A1048F6
:103E60000068000E0D49C8700D480068000C08710C
:103E70000B480088000A4871094800788871084694
:103E8000FFF7B5FE0549C8710A46082105480068D4
:103E900000F0E2FABDEC028B10BD0000280000200B
:103EA000400000200400002010B52DED028BB0EE84
:103EB000408A134880ED008A4F20124908704C2038
:103EC00048704D2088700E480068000EC8700C487D
:103ED0000068000C08710A480088000A4871084808
:103EE000007888710846FFF782FE0649C8710A46C5
:103EF00008210548006800F0AFFABDEC028B10BD48
:103F000040000020280000200400002010B54E488A
:103F1000B0F904004D49B1F9041088421ED04A4955
:103F2000B1F90400002801DB014600E041420A2902
:103F30000CDD4548B0F90400404200EE900AF8EE6E
:103F4000E00AB0EE600A00F033F903E09FED400AAA
:103F500000F02EF93C4880883C4988803A48B0F906
:103F60000A0020B1012807D002280FD109E0B3EEE2
:103F70000E0A00F0A9F809E09FED350A00F0A4F858
:103F800004E0BBEE0E0A00F09FF800BF00BF2E4811
:103F9000B0F900002D49B1F90010884214D0002476
:103FA0000CE02948B0F9000000EE900AF8EEE00AB3
:103FB000B0EE600AFFF778FF601CC4B2032CF0DBA0
:103FC00021480088214908801F4AB2F902100029BF
:103FD00001DB0A4600E04A421E4B1B689A4231DB75
:103FE000194AB2F90200002801DB024600E0424211
:103FF000194B1B689A4225DC18480078401E40B2D5
:1040000016490870084690F9000000281ADC0021C3
:10401000FE2001F081F80C48B0F90240002C01DBD1
:10402000204600E0604200EE100AB8EEC00ABCEE86
:10403000C00A10EE100A81B2FE2001F049F80A20F1
:104040000649087010BD0000AA030020CA03002022
:1040500000000000A45C0008A85C00083C000020F0
:1040600010B51648007848B915480078012805D1E0
:10407000032014490870FEF753F81EE00F4800783B
:1040800048B90F480078022805D103200D4908706F
:10409000FDF710FF11E009480078012808D1084811
:1040A000007828B9022007490870FCF7F5FB04E006
:1040B000002004490870FEF7E7FB10BD3300002024
:1040C000320000203000002010B52DED028BB0EE44
:1040D000408A4F201A49087050204870B5EEC08AB7
:1040E000F1EE10FA05DB52208870164880ED008A48
:1040F00007E04C2012498870B1EE480A114880ED63
:10410000000A10480068000E0D49C8700D4800688C
:10411000000C08710B480088000A487109480078B3
:1041200088710846FFF763FD0549C8710A460821F2
:104130000548006800F090F9BDEC028B10BD00004E
:1041400028000020400000200400002010B52DEDC4
:10415000028BB0EE408A134880ED008A4F2012494E
:1041600008704C204870502088700E480068000E7F
:10417000C8700C480068000C08710A480088000AE2
:1041800048710848007888710846FFF730FD0649F5
:10419000C8710A4608210548006800F05DF9BDECC9
:1041A000028B10BD400000202800002004000020E9
:1041B00010B52DED028BB0EE408A4F201A490870E1
:1041C0004C204870B5EEC08AF1EE10FA05DB5220A3
:1041D0008870164880ED008A07E04C2012498870EC
:1041E000B1EE480A114880ED000A10480068000E40
:1041F0000D49C8700D480068000C08710B48008814
:10420000000A48710948007888710846FFF7EFFCFA
:104210000549C8710A4608210548006800F01CF9E4
:10422000BDEC028B10BD00002800002040000020E3
:104230000C00002010B56C480078052825D2DFE876
:1042400000F00325527FAC00C820684908700020A8
:104250004870887066480078C870664800780871B1
:10426000654800784871002088710846FFF7BFFC58
:104270005E49C8710A4608216048006800F0ECF801
:1042800059480078401C58490870ABE05C4890EDF4
:10429000000A5C4880ED000A502054490870522002
:1042A00048700020887057480068000EC870554854
:1042B0000068000C087153480088000A4871514892
:1042C000007888710846FFF792FC4849C8710A4691
:1042D00008214A48006800F0BFF843480078401CB5
:1042E000414908707EE0484890ED000A474880ED5B
:1042F000000A50203D4908704B204870002088700B
:1043000042480068000EC87040480068000C087100
:104310003E480088000A48713C4800788871084689
:10432000FFF765FC3149C8710A4608213348006827
:1043300000F092F82C480078401C2B49087051E09E
:10434000314890ED010A324880ED000A5420274997
:1043500008704B204870002088702D480068000EBF
:10436000C8702B480068000C087129480088000AB2
:1043700048712748007888710846FFF738FC1B49C8
:10438000C8710A4608211D48006800F065F8164803
:104390000078401C1449087024E05220134908702A
:1043A00050204870562088701A480068000EC87067
:1043B00018480068000C087116480088000A487107
:1043C0001448007888710846FFF711FC0749C87146
:1043D0000A4608210948006800F03EF8002002491A
:1043E000087000BF00BF10BD310000202800002071
:1043F0006C0000206D0000206E00002008000020EE
:10440000980200204400002078000020480000208E
:104410004C0000205000002010B545200C490870C9
:104420004E204870442088704120C8705220087186
:104430004D204871322088710846FFF7D8FB0449A7
:10444000C8710A4608210348006800F005F810BD4D
:1044500028000020040000202DE9F04385B08046AC
:104460000C469146CDF80080002001908DF809009F
:104470008DF80800E0B28DF80A00002005E019F878
:1044800000200DF10B010A54401CA042F7DB6946E5
:104490000A48FCF76BFE0546002705E02946074859
:1044A000FCF7F8FE06467F1C012E03D04FF6FF7086
:1044B0008742F3D105B0BDE8F083000000640040FE
:1044C00010B501211020FEF7C7FB0020024908812A
:1044D0000248FFF7F5F810BDA401002000100040CD
:1044E00070B504461448006880081449B0FBF1F028
:1044F0000121C1EB40001249088040F2E7304860DA
:104500001048FFF7DDF8002513E001210D48FFF703
:104510009BF801210B48FFF79DF800BF01210948D6
:10452000FFF7A7F80028F9D000210648FFF792F816
:104530006D1CA542E9D370BD5401002040420F001C
:10454000A40100200010004070B504461448006823
:1045500080081449B0FBF1F00121C1EB4000124981
:104560000880012048601148FFF7AAF8002513E0F1
:1045700001210E48FFF768F801210C48FFF76AF89F
:1045800000BF01210948FFF774F80028F9D0002185
:104590000648FFF75FF86D1CA542E9D370BD000027
:1045A0005401002080841E00A4010020001000405F
:1045B00010B502460023002004E0145C242C00D136
:1045C000C3B2401C2628F8DB00200CE01C18262C67
:1045D00003DA1C18145D0C5404E0C3F12604041B18
:1045E000145D0C54401C2628F0DB10BD10B57F2054
:1045F00000F05CFF10BD000000B585B0012108206F
:10460000FEF71AFB01208DF8100000208DF8120033
:104610004FF48050039000208DF8130003208DF894
:10462000110003A9DE48FEF7BDF84FF48051DC48C5
:10463000FEF723F901210820FEF7FEFA01208DF88C
:10464000100000208DF812004FF40050039000205D
:104650008DF8130003208DF8110003A9D048FEF750
:10466000A1F84FF40051CE48FEF707F901210820C8
:10467000FEF7E2FA01208DF8100000208DF81200FC
:104680004FF48040039000208DF8130003208DF834
:10469000110003A9C248FEF785F84FF48041C048D5
:1046A000FEF7EBF801210820FEF7C6FA01208DF88D
:1046B000100000208DF812004FF4004003900020FD
:1046C0008DF8130003208DF8110003A9B448FEF7FC
:1046D00069F84FF40041B248FEF7CFF801211020ED
:1046E000FEF7AAFA01218803FEF7D6FA00208DF81A
:1046F00010008DF812004FF40060039002208DF836
:10470000130003208DF8110003A9A648FEF74AF80C
:104710000B210420FEF7C4FD4FF40060019001203E
:104720008DF80A0000208DF8080008208DF8090097
:1047300001A8FDF721FE28208DF8000001208DF84A
:10474000030000208DF801008DF802006846FEF796
:10475000DDF901211020FEF76FFA01218803FEF731
:104760009BFA00208DF810008DF812004FF4805055
:10477000039002208DF8130003208DF8110003A987
:104780008848FEF70FF80C210420FEF789FD4FF44E
:104790008050019001208DF80A0000208DF808005B
:1047A00008208DF8090001A8FDF7E6FD28208DF806
:1047B000000001208DF8030000208DF801008DF825
:1047C00002006846FEF7A2F901211020FEF734FA34
:1047D00001218803FEF760FA00208DF810008DF8A3
:1047E00012004FF40050039002208DF813000320B4
:1047F0008DF8110003A96B48FDF7D4FF0D210420AB
:10480000FEF74EFD4FF40050019001208DF80A0094
:1048100000208DF8080008208DF8090001A8FDF798
:10482000ABFD28208DF8000001208DF8030000204A
:104830008DF801008DF802006846FEF767F9012146
:104840001020FEF7F9F901218803FEF725FA002070
:104850008DF810008DF812004FF480400390022074
:104860008DF8130003208DF8110003A94D48FDF7C2
:1048700099FF0E210420FEF713FD4FF480400190B4
:1048800001208DF80A0000208DF8080008208DF81E
:10489000090001A8FDF770FD28208DF80000012017
:1048A0008DF8030000208DF801008DF802006846A5
:1048B000FEF72CF901211020FEF7BEF90121880333
:1048C000FEF7EAF900208DF810008DF812004FF481
:1048D0000040039002208DF8130003208DF8110092
:1048E00003A93048FDF75EFF0F210420FEF7D8FC36
:1048F0004FF40040019001208DF80A0000208DF84F
:10490000080008208DF8090001A8FDF735FD2820D2
:104910008DF8000001208DF8030000208DF80100C3
:104920008DF802006846FEF7F1F801210420FEF739
:1049300083F901208DF8100000208DF812004FF44B
:104940000040039000208DF8130003208DF8110023
:1049500003A91548FDF726FF4FF400411248FDF763
:104960008CFF01210420FEF767F901208DF810006B
:1049700000208DF812004FF48060039002208DF823
:10498000130003208DF8110003A90748FDF70AFF63
:104990004FF480610448FDF770FF05B000BD0000D2
:1049A000000C0240001002400008024010B54FF415
:1049B00000410248FDF761FF10BD0000000C0240FD
:1049C00010B54FF400410248FDF759FF10BD00003B
:1049D000000C024000B597B001210220FEF72CF92F
:1049E00002208DF8580000208DF85A004FF48060A6
:1049F000159000208DF85B0003208DF8590015A953
:104A00004348FDF7CFFE01210220FEF715F90220F1
:104A10008DF8580000208DF85A004FF40060159072
:104A200000208DF85B0003208DF8590015A9384847
:104A3000FDF7B8FE07220A213548FDF7FBFE0722E5
:104A40000B213348FDF7F6FE01218804FEF704F937
:104A50004FF4165011900020ADF850000C20ADF826
:104A60004E000020ADF84C00ADF84A00ADF848000B
:104A700011A9284800F026FC01214805FEF7DCF8C2
:104A80004FF000600290244804902248001D0390DB
:104A90000020059009200690002007904FF48060C8
:104AA0000890002009900A904FF480700B9040020B
:104AB0000C9000200D9001200E9000200F9010907F
:104AC00002A91648FCF7E0FF00224021114800F03F
:104AD000E3FB00211148FCF77BFF012210210F4866
:104AE000FCF7B4FF0C208DF8040000208DF80500C1
:104AF00002208DF8060001208DF8070001A8FEF7BE
:104B000005F80121034800F0BBFB17B000BD000011
:104B10000004024000480040B50200202860024026
:104B200008B5C1788DF8001081788DF801104178B2
:104B30008DF8021001788DF803109DED000A08BD74
:104B400070B586B0054600262A48057030202949F0
:104B50004870042088704320C870002404E0254970
:104B6000085D00F095F8641C042CF8DB00BF802180
:104B7000214800F09AFB0128F9D128E000240DE03B
:104B800000BF20211C4800F090FB0128F9D11A48F1
:104B900000F002FC03A90855601CC4B20A2CEFDB2C
:104BA00001AB02AA082103A8FCF7C4FB9DF80E0084
:104BB00005280CD19DF814009DF80810884206D1F4
:104BC0009DF815009DF80410884200D10126002EA2
:104BD000D4D001224021084800F05EFB01210748A3
:104BE000FCF7F6FE0A20FFF77BFCFA2000F008F83D
:104BF00006B070BDAC0200200048004028600240B2
:104C000070B505460E48057049200D4948700120D1
:104C100088700B1DCA1C0321D01EFCF78BFB0024DF
:104C200004E00749085D00F033F8641C052CF8DB4C
:104C300000BF8021034800F038FB0128F9D170BD86
:104C4000AC0200200048004070B505460E480570D3
:104C500049200D494870042088700B1DCA1C03218F
:104C6000D01EFCF767FB002404E00749085D00F054
:104C70000FF8641C052CF8DB00BF8021034800F00E
:104C800014FB0128F9D170BDAC020020004800409F
:104C900010B5044600BF8021044800F006FB01283F
:104CA000F9D12146014800F07CFB10BD00480040CE
:104CB00010B50B46FF22C17AFF290AD1017BFF29DB
:104CC00007D1417B012904D101780A2901D10B22A6
:104CD00035E0017BFF290AD1417BFF2907D101780B
:104CE000012904D141780A2901D10C2227E0417B16
:104CF000FF290AD10178FF2907D14178012904D180
:104D000081780A2901D10D2219E0012114E00B2933
:104D100010DA445CFF2C0DD14C1C045DFF2C09D132
:104D20008C1C045D012C05D1CC1C045D0A2C01D126
:104D30000A4603E04C1CE1B20E29E8DB00BFFF2A63
:104D400011D000210DE054180E2C03DA5418045D24
:104D50005C5404E0C2F10E040C1B045D5C544C1C5A
:104D6000E1B20E29EFDB10BD10B502460B46002163
:104D7000022003E0145C0C44A1B2401C5C1E84427F
:104D8000F8DCC8B2C04381B2C8B210BD00B599B05A
:104D900001210846FDF750FF02208DF86000002039
:104DA0008DF862000420179000208DF86300032026
:104DB0008DF8610017A95948FDF7F4FC0121084658
:104DC000FDF73AFF02208DF8600000208DF86200A8
:104DD0000820179000208DF8630003208DF86100F3
:104DE00017A94E48FDF7DEFC072202214B48FDF7CC
:104DF00021FD072203214948FDF71CFD012148043C
:104E0000FDF72AFF4FF4614013900020ADF85800E1
:104E10000C20ADF856000020ADF85400ADF852005B
:104E2000ADF8500013A93E4800F04CFA0122402191
:104E30003B4800F031FA01214805FDF7FDFE4FF037
:104E400000600490374806903548001D059000200A
:104E500007900E200890002009904FF480600A907F
:104E600000200B900C904FF480700D9040020E903B
:104E700000200F900120109000201190129004A9A2
:104E80002948FCF701FE01212748FCF7A1FD01227A
:104E900010212548FCF7DAFD10208DF80C000020C9
:104EA0008DF80D0004208DF80E0001208DF80F0004
:104EB00003A8FDF72BFE0121194800F0E1F90121BB
:104EC0002020FDF7C9FE0020ADF80800ADF8020073
:104ED00040F24730019040F2E730ADF800006946FB
:104EE0001248FEF7EDFB002201211048FEF7DBFB24
:104EF00037208DF80C0000208DF80D0005208DF86E
:104F00000E0001208DF80F0003A8FDF7FFFD002122
:104F10000648FEF79FFB19B000BD000000000240EC
:104F2000004400407C0200208860024000140040E1
:104F300008B5014608788DF8000048788DF8010022
:104F4000BDF8000008BD000010B5FE2000F066F8B6
:104F50004FF4FA70FFF7F8FA2221FE2000F098F8DB
:104F60004FF4FA70FFF7F0FA40F6C411FE2000F09B
:104F7000AFF84FF4FA70FFF7E7FA01221146044840
:104F8000FEF791FB01210248FEF764FB10BD000013
:104F90000014004070B505460E4600240CE000BF2A
:104FA0008021074800F081F90128F9D1295D0448E2
:104FB00000F0F7F9601CC4B2B442F0DB70BD000031
:104FC00000440040F0EE400A9FED101AB0EE410A96
:104FD000B2EE081AF4EEC10AF1EE10FA04D29FED17
:104FE0000C1AB0EE410A0FE09FED0A1AF4EEC10A66
:104FF000F1EE10FA04D2B0EE041AB0EE410A03E06A
:105000009FED051AB0EE410A704700000000000055
:1050100033331340CDCC6C41666646401CB5044624
:10502000FF208DF800008DF801008DF8024002206D
:105030008DF8030001208DF8040006216846FFF773
:1050400093FE8DF8050006216846FFF7A3FF1CBDFF
:105050001CB50446FF208DF800008DF801008DF886
:10506000024004208DF8030002208DF80400242063
:105070008DF8050008208DF8060008216846FFF726
:1050800073FE8DF8070008216846FFF783FF1CBDFB
:105090007CB504460D46FF208DF800008DF8010018
:1050A0008DF8024004208DF8030003208DF80400E1
:1050B00004208DF805008DF8065008216846FFF79A
:1050C00053FE8DF8070008216846FFF763FF7CBD9B
:1050D0003EB505460C46FF208DF800008DF8010016
:1050E0008DF8025005208DF8030003208DF8040090
:1050F0001E208DF80500E0B28DF80600200A8DF81C
:10510000070009216846FFF72FFE8DF808000921E6
:105110006846FFF73FFF3EBD3EB505460C46FF2003
:105120008DF800008DF801008DF8025005208DF8F3
:10513000030003208DF8040020208DF80500E0B264
:105140008DF80600200A8DF8070009216846FFF750
:105150000BFE8DF8080009216846FFF71BFF3EBDD6
:1051600000B595B001210420FDF766FD0121202046
:10517000FDF792FD01218805FDF75EFD0121042068
:10518000FDF75AFD02208DF8500000208DF85200E6
:105190008020139000208DF8530002208DF85100DC
:1051A00013A93248FDF7FEFA02208DF850000020C6
:1051B0008DF852004020139000208DF853000220FB
:1051C0008DF8510013A92948FDF7ECFA08220621B1
:1051D0002648FDF72FFB082207212448FDF72AFB6C
:1051E00023480F900020ADF84000ADF84200ADF824
:1051F0004400ADF848000C20ADF846000FA91D484A
:1052000000F060F801211B4800F03AF8012240212B
:10521000184800F041F84FF0206000901548001D3C
:10522000019015480290002003901920049000205E
:1052300005904FF4806006900020079008904FF48E
:105240008070099040020A9000200B9001200C9081
:1052500000200D900E9069460848FCF715FC0121CE
:105260000648FCF7B5FB15B000BD00000008024081
:10527000A086010000140140C10200202864024001
:1052800021B1828942F40052828104E082894DF684
:10529000FF731A40828170471AB1838A0B4383825D
:1052A00002E0838A8B438382704702460020B1F577
:1052B000007F00D100BF13880B400BB1012000E03C
:1052C000002070472DE9FF4705460E460024A14601
:1052D00000BFA046B08900B100BF2C8A24F440541E
:1052E000F08804432C82AC8941F20C608443B0887E
:1052F00031890843718908430443AC81AC8A24F4A2
:105300004074B0890443AC826846FDF707FD20482D
:10531000854202D01F48854202D1DDF80C9001E0A1
:10532000DDF80890A88900F4004040B109EBC900FD
:1053300000EB091031684900B0FBF1F707E009EB19
:10534000C90000EB091031688900B0FBF1F7642057
:10535000B7FBF0F004012009642101FB1078A88953
:1053600000F4004040B1322000EBC800B0FBF1F087
:1053700000F00700044308E0322000EB081064212D
:10538000B0FBF1F000F00F0004432C81BDE8FF8773
:10539000001001400014014001468888C0F3080055
:1053A0007047C1F3080282807047000010B52DEDF0
:1053B000048B2C48007800EE100AB8EE400A2A4808
:1053C00080ED000A2748407800EE100AB8EE400A47
:1053D000264880ED000A2348807800EE100AB8EED7
:1053E000400A234880ED000A1E48C07800EE100AEB
:1053F000B8EE400A1F4880ED000A1C480068FBF721
:10540000BFF841EC190B53EC192B9FED1B0B51EC22
:10541000100BFAF7F0FF41EC180BFBF7DDF8184919
:10542000086013480068FBF7ABF841EC190B53EC2C
:10543000192B9FED110B51EC100BFAF7DCFF41EC2F
:10544000180BFBF7C9F80F4908600A4890ED000AED
:105450000D4880ED000A01200C490870BDEC048B5A
:1054600010BD00003C010020E4000020E800002006
:10547000EC000020F0000020000000000000F03FE1
:10548000F4000020F8000020FC0000202101002092
:1054900000BFFEE70020014908607047082C00406B
:1054A00010B5FFF7F7FFFFF7A1F810BD00F07F017F
:1054B000014A116070470000002C004003B40198BD
:1054C0004100009850EAC12018BF04204A0D18BFBF
:1054D00040F0010040F2FF72B2EB515F08BF40F0B4
:1054E0000200012808BF052002B07047000000003C
:1054F00070B52DED020B2DED0A8B82B00D98C40F07
:1055000020F00045AE48854248D3AE48854219D3C5
:105510000C99C5F31300084309D09DED0C0B02B0A4
:10552000BDEC0A8B02B0BDE8704000F009BA002C57
:1055300014BF9FEDA50B9DED0C0B02B0BDEC0A8BCB
:1055400002B070BD9FEDA20B53EC102B9DED0C0B28
:1055500051EC100BFBF728F80AD2022000F02CFACD
:1055600002B0BDEC0A8B02B0BDE8704000F0F4B9A7
:105570009FED990B53EC102B9DED0C0B51EC100B88
:10558000FBF70CF90AD2022000F016FA02B0BDECCB
:105590000A8B02B0BDE8704000F0EEB990489FED74
:1055A00092BBA8425CD29248854219D29148784475
:1055B00000EBC40090ED000B53EC102B9DED0C0B99
:1055C00051EC100BFAF79FFE41EC1A0B8A48784415
:1055D00000EBC40090ED009BC4F10100041B36E019
:1055E0009FED870B53EC102B9DED0C0B51EC100B2A
:1055F000FAF78FFE41EC100B8348784400EBC400AF
:1056000090ED001B51EC100B53EC112BFAF7DAFD67
:10561000FAF77EFF0446FAF75DFF41EC180B9FEDA9
:105620007C0B53EC102BFAF774FE9DED0C1B53EC26
:10563000112BFAF76BFE41EC1A0B9FED770B51EC37
:10564000180B53EC102BFAF764FE41EC190B51ECDC
:105650001A0B53EC192BFAF756FECDE90C011BE09F
:105660006F48854217D29FED700B53EC102B9DEDC8
:105670000C0B51EC100BFAF7A5FD53EC1B2BFAF7B2
:1056800093FF08D29DED0C0B53EC1B2B51EC100B30
:10569000FAF798FD6EE000249DED0C0B53EC102BF7
:1056A00051EC100BFAF735FE41EC180B6048052160
:1056B000B0EE480AF0EE680A784400F0C5F853EC02
:1056C000182B51EC100BFAF724FE9DED0C1B53EC3C
:1056D000112BFAF71BFE41EC180B9FED570B5CB337
:1056E00053EC182B51EC100BFAF70DFE9DED0C0B43
:1056F00041EC1C0B53EC182B51EC100BFAF709FE84
:1057000053EC1C2BFAF777FE53EC192BFAF7FEFD3E
:1057100053EC1A2BFAF7F7FD53EC1B2BFAF7F6FDB7
:10572000CDE900016FF47F70844226DB01EB045069
:1057300001909DED000B00E753EC102B51EC180B82
:10574000FAF7E1FD9DED0C0B41EC190B53EC182B16
:1057500051EC100BFAF7DDFD53EC192BFAF74BFE69
:105760009DED0C1B53EC112BFAF7CDFD53EC1B2BCD
:10577000FAF7CCFD41EC100BDFE608464FF07A510A
:1057800001EB04519FED2E0B084453EC102B0190BC
:105790009DED000B51EC100BFAF7BBFD0D4645ECEF
:1057A000100B044651EC100BFFF788FE042808BFCD
:1057B00000F0E2F845EC104BBFE6000000000000EE
:1057C000422E86400000F07F000000000000000034
:1057D000EF39FAFE422E864051302DD5104987C050
:1057E000422ED63F00000000000000000000F03F05
:1057F000B2A2F03F360700002607000000000000BC
:10580000FE822B654715F73FDA0600000000000016
:105810000000E0FE422EE63F763C7935EF39EA3D66
:105820000000303E000000009C7500883CE4377E9C
:105830004C060000000000000000000000000040D6
:10584000000000000000700170B504462DED028BD1
:105850004D1E00EBC500B0EE408AF0EE608A90ED80
:10586000000B35F0060017D053EC182B51EC100B41
:10587000FAF74FFD41EC100B6D1E04EBC50090EDE7
:10588000001B51EC100B53EC112BFAF79BFC41EC75
:10589000100B35F00600E7D1022D36D0042D1CD0B8
:1058A000062D1CBFBDEC028B70BD53EC182B51ECC8
:1058B000100BFAF72EFD94ED0A1B53EC112BFAF79F
:1058C00081FC53EC182BFAF724FD94ED081B53ECE4
:1058D000112BFAF777FC41EC100B53EC182B51EC21
:1058E000100BFAF716FD94ED061B53EC112BFAF78B
:1058F00069FC53EC182BFAF70CFD94ED040B53ECF8
:10590000102BFAF75FFC41EC100B53EC182B51EC09
:10591000100BFAF7FEFC94ED021B53EC112BFAF777
:1059200051FC53EC182BFAF7F4FC94ED001B53ECEC
:10593000112BFAF747FCBDEC028B41EC100B70BD4C
:1059400010B553EC102B51EC100BFAF73BFC41EC6B
:10595000100B10BD000000009FED050B10B553ECBF
:10596000102B51EC100BFAF7D4FC41EC100B10BDCE
:1059700000000000000000709FED050B10B553EC17
:10598000102B51EC100BFAF7C4FC41EC100B10BDBE
:10599000000000000000001002E008C8121F08C14B
:1059A000002AFAD170477047002001E001C1121FA0
:1059B000002AFBD1704700000149086070470000D1
:1059C00058010020FDF7DCFC2148FDF7A7F9FEF7A0
:1059D00077FDFEF711FE4FF4FA70FEF781FDFEF73A
:1059E00007F84FF4FA70FEF77BFDFEF70FF94FF45E
:1059F000FA70FEF775FDFFF7B3FB4FF4FA70FEF790
:105A00006FFDFEF7E7FF6420FEF76AFDFA20FFF75F
:105A100097F84FF4FA70FEF763FDFFF7B7F94FF40C
:105A2000FA70FEF75DFDFFF78FFA4FF4FA70FEF79C
:105A300057FDFE20FFF7F2FAFEF7C2FF4FF47A702F
:105A4000FEF74EFDFEF7B2FFFAF7FEFE00BFFEE7DF
:105A50005C01002070B50446049D601AEE1A704384
:105A6000561A90FBF6F0184470BD000010B52DEDED
:105A70000A8BB0EE408AF0EE608A9FED220B53EC69
:105A8000102B51EC180BFAF78FFD19D8B0EE480A1D
:105A9000F0EE680AFFF72CFDB0EE40AAF0EE60AA27
:105AA0009FED1A0B53EC102B51EC1A0BFAF78AFBF3
:105AB00041EC190BFAF72CFD00B2BDEC0A8B10BDBE
:105AC00051EC180B81F0004141EC1C0BB0EE4C0A7C
:105AD000F0EE6C0AFFF70CFDB0EE40BAF0EE60BAE3
